{
  "contractName": "StakingRatio",
  "abi": [
    {
      "constant": true,
      "inputs": [],
      "name": "aAmount",
      "outputs": [
        {
          "name": "",
          "type": "uint256"
        }
      ],
      "payable": false,
      "stateMutability": "view",
      "type": "function"
    },
    {
      "constant": true,
      "inputs": [],
      "name": "bAmount",
      "outputs": [
        {
          "name": "",
          "type": "uint256"
        }
      ],
      "payable": false,
      "stateMutability": "view",
      "type": "function"
    },
    {
      "constant": false,
      "inputs": [
        {
          "name": "requestedAmount",
          "type": "uint256"
        }
      ],
      "name": "withdrawB",
      "outputs": [],
      "payable": false,
      "stateMutability": "nonpayable",
      "type": "function"
    },
    {
      "constant": false,
      "inputs": [],
      "name": "withdrawAll",
      "outputs": [],
      "payable": false,
      "stateMutability": "nonpayable",
      "type": "function"
    },
    {
      "constant": false,
      "inputs": [],
      "name": "stakeB",
      "outputs": [],
      "payable": true,
      "stateMutability": "payable",
      "type": "function"
    },
    {
      "constant": false,
      "inputs": [
        {
          "name": "requestedAmount",
          "type": "uint256"
        }
      ],
      "name": "withdrawA",
      "outputs": [],
      "payable": false,
      "stateMutability": "nonpayable",
      "type": "function"
    },
    {
      "constant": false,
      "inputs": [],
      "name": "stakeA",
      "outputs": [],
      "payable": true,
      "stateMutability": "payable",
      "type": "function"
    },
    {
      "anonymous": false,
      "inputs": [
        {
          "indexed": false,
          "name": "a",
          "type": "uint256"
        },
        {
          "indexed": false,
          "name": "b",
          "type": "uint256"
        }
      ],
      "name": "Ratio",
      "type": "event"
    }
  ],
  "bytecode": "0x6060604052341561000f57600080fd5b6107868061001e6000396000f300606060405260043610610083576000357c0100000000000000000000000000000000000000000000000000000000900463ffffffff16806343381a06146100885780635870cf2f146100b157806366cff89a146100da578063853828b6146100fd578063acae3f8f14610112578063c68d71aa1461011c578063f93150a51461013f575b600080fd5b341561009357600080fd5b61009b610149565b6040518082815260200191505060405180910390f35b34156100bc57600080fd5b6100c461014f565b6040518082815260200191505060405180910390f35b34156100e557600080fd5b6100fb6004808035906020019091905050610155565b005b341561010857600080fd5b6101106102cf565b005b61011a610474565b005b341561012757600080fd5b61013d600480803590602001909190505061051f565b005b610147610696565b005b60025481565b60035481565b600081905060008114156101a657600160003373ffffffffffffffffffffffffffffffffffffffff1673ffffffffffffffffffffffffffffffffffffffff1681526020019081526020016000205490505b60008111156102cb576101f881600160003373ffffffffffffffffffffffffffffffffffffffff1673ffffffffffffffffffffffffffffffffffffffff16815260200190815260200160002054610741565b905080600160003373ffffffffffffffffffffffffffffffffffffffff1673ffffffffffffffffffffffffffffffffffffffff168152602001908152602001600020600082825403925050819055503373ffffffffffffffffffffffffffffffffffffffff166108fc829081150290604051600060405180830381858888f19350505050151561028757600080fd5b7f1c84baf2927a30fe53df0acfee116d2ac8b9aa13d183a95b0d77d857a765d151600254600354604051808381526020018281526020019250505060405180910390a15b5050565b60008090506000803373ffffffffffffffffffffffffffffffffffffffff1673ffffffffffffffffffffffffffffffffffffffff168152602001908152602001600020548101905060008060003373ffffffffffffffffffffffffffffffffffffffff1673ffffffffffffffffffffffffffffffffffffffff16815260200190815260200160002081905550600160003373ffffffffffffffffffffffffffffffffffffffff1673ffffffffffffffffffffffffffffffffffffffff16815260200190815260200160002054810190506000600160003373ffffffffffffffffffffffffffffffffffffffff1673ffffffffffffffffffffffffffffffffffffffff168152602001908152602001600020819055506000811115610471573373ffffffffffffffffffffffffffffffffffffffff166108fc829081150290604051600060405180830381858888f19350505050151561042d57600080fd5b7f1c84baf2927a30fe53df0acfee116d2ac8b9aa13d183a95b0d77d857a765d151600254600354604051808381526020018281526020019250505060405180910390a15b50565b600034111561051d57346000803373ffffffffffffffffffffffffffffffffffffffff1673ffffffffffffffffffffffffffffffffffffffff16815260200190815260200160002060008282540192505081905550346002600082825401925050819055507f1c84baf2927a30fe53df0acfee116d2ac8b9aa13d183a95b0d77d857a765d151600254600354604051808381526020018281526020019250505060405180910390a15b565b6000819050600081141561056f576000803373ffffffffffffffffffffffffffffffffffffffff1673ffffffffffffffffffffffffffffffffffffffff1681526020019081526020016000205490505b6000811115610692576105c0816000803373ffffffffffffffffffffffffffffffffffffffff1673ffffffffffffffffffffffffffffffffffffffff16815260200190815260200160002054610741565b9050806000803373ffffffffffffffffffffffffffffffffffffffff1673ffffffffffffffffffffffffffffffffffffffff168152602001908152602001600020600082825403925050819055503373ffffffffffffffffffffffffffffffffffffffff166108fc829081150290604051600060405180830381858888f19350505050151561064e57600080fd5b7f1c84baf2927a30fe53df0acfee116d2ac8b9aa13d183a95b0d77d857a765d151600254600354604051808381526020018281526020019250505060405180910390a15b5050565b600034111561073f57346000803373ffffffffffffffffffffffffffffffffffffffff1673ffffffffffffffffffffffffffffffffffffffff16815260200190815260200160002060008282540192505081905550346002600082825401925050819055507f1c84baf2927a30fe53df0acfee116d2ac8b9aa13d183a95b0d77d857a765d151600254600354604051808381526020018281526020019250505060405180910390a15b565b60008183106107505781610752565b825b9050929150505600a165627a7a723058209143e1d9460a1b3c0d299d9305c6b48de3881ae4cdbcc43688eb7e25cc72d8b50029",
  "source": "pragma solidity ^0.4.18;\n\ncontract StakingRatio {\n\n    mapping (address => uint256) aStakes;\n    mapping (address => uint256) bStakes;\n\n    uint256 public aAmount;\n    uint256 public bAmount;\n\n    event Ratio(uint256 a, uint256 b);\n\n    function min(uint a, uint b) private pure returns (uint) {\n        return a < b ? a : b;\n    }\n\n    function stakeA() public payable {\n        if (msg.value > 0) {\n            aStakes[msg.sender] += msg.value;\n            aAmount += msg.value;\n            Ratio(aAmount, bAmount);\n        }\n    }\n\n    function stakeB() public payable {\n        if (msg.value > 0) {\n            aStakes[msg.sender] += msg.value;\n            aAmount += msg.value;\n            Ratio(aAmount, bAmount);\n        }\n    }\n\n    function withdrawA(uint256 requestedAmount) public {\n        uint256 amount = requestedAmount;\n        if(amount == 0) {\n            amount = aStakes[msg.sender];\n        }\n        if(amount > 0) {\n            amount = min(amount, aStakes[msg.sender]);\n            aStakes[msg.sender] -= amount;\n            msg.sender.transfer(amount);\n            Ratio(aAmount, bAmount);\n        }\n    }\n\n    function withdrawB(uint256 requestedAmount) public {\n        uint256 amount = requestedAmount;\n        if(amount == 0) {\n            amount = bStakes[msg.sender];\n        }\n        if(amount > 0) {\n            amount = min(amount, bStakes[msg.sender]);\n            bStakes[msg.sender] -= amount;\n            msg.sender.transfer(amount);\n            Ratio(aAmount, bAmount);\n        }\n    }\n\n    function withdrawAll() public {\n        uint256 amount = 0;\n        amount += aStakes[msg.sender];\n        aStakes[msg.sender] = 0;\n        amount += bStakes[msg.sender];\n        bStakes[msg.sender] = 0;\n        if(amount > 0) {\n            msg.sender.transfer(amount);\n            Ratio(aAmount, bAmount);\n        }\n    }\n}\n",
  "sourcePath": "/home/rob/projects/artworld-ethereum/dapps/staking-ratio/contracts/StakingRatio.sol",
  "compiler": {
    "name": "solc",
    "version": "0.4.18+commit.9cf6e910.Emscripten.clang"
  },
  "schemaVersion": "1.0.1",
  "updatedAt": "2018-03-18T22:12:20.235Z"
}