{
  "contractName": "StakingRatio",
  "abi": [
    {
      "constant": true,
      "inputs": [],
      "name": "aAmount",
      "outputs": [
        {
          "name": "",
          "type": "uint256"
        }
      ],
      "payable": false,
      "stateMutability": "view",
      "type": "function"
    },
    {
      "constant": true,
      "inputs": [],
      "name": "bAmount",
      "outputs": [
        {
          "name": "",
          "type": "uint256"
        }
      ],
      "payable": false,
      "stateMutability": "view",
      "type": "function"
    },
    {
      "inputs": [],
      "payable": false,
      "stateMutability": "nonpayable",
      "type": "constructor"
    },
    {
      "anonymous": false,
      "inputs": [
        {
          "indexed": false,
          "name": "a",
          "type": "uint256"
        },
        {
          "indexed": false,
          "name": "b",
          "type": "uint256"
        }
      ],
      "name": "Ratio",
      "type": "event"
    },
    {
      "constant": false,
      "inputs": [],
      "name": "stakeA",
      "outputs": [],
      "payable": true,
      "stateMutability": "payable",
      "type": "function"
    },
    {
      "constant": false,
      "inputs": [],
      "name": "stakeB",
      "outputs": [],
      "payable": true,
      "stateMutability": "payable",
      "type": "function"
    },
    {
      "constant": true,
      "inputs": [],
      "name": "myAStake",
      "outputs": [
        {
          "name": "",
          "type": "uint256"
        }
      ],
      "payable": false,
      "stateMutability": "view",
      "type": "function"
    },
    {
      "constant": true,
      "inputs": [],
      "name": "myBStake",
      "outputs": [
        {
          "name": "",
          "type": "uint256"
        }
      ],
      "payable": false,
      "stateMutability": "view",
      "type": "function"
    },
    {
      "constant": false,
      "inputs": [],
      "name": "withdrawA",
      "outputs": [],
      "payable": false,
      "stateMutability": "nonpayable",
      "type": "function"
    },
    {
      "constant": false,
      "inputs": [],
      "name": "withdrawB",
      "outputs": [],
      "payable": false,
      "stateMutability": "nonpayable",
      "type": "function"
    },
    {
      "constant": false,
      "inputs": [],
      "name": "withdrawAll",
      "outputs": [],
      "payable": false,
      "stateMutability": "nonpayable",
      "type": "function"
    }
  ],
  "bytecode": "0x608060405234801561001057600080fd5b5060405161001d906100e7565b604051809103906000f080158015610039573d6000803e3d6000fd5b506000806101000a81548173ffffffffffffffffffffffffffffffffffffffff021916908373ffffffffffffffffffffffffffffffffffffffff160217905550604051610085906100f4565b604051809103906000f0801580156100a1573d6000803e3d6000fd5b50600160006101000a81548173ffffffffffffffffffffffffffffffffffffffff021916908373ffffffffffffffffffffffffffffffffffffffff160217905550610101565b61098e80610e7283390190565b61098e8061180083390190565b610d62806101106000396000f3fe6080604052600436106100865760003560e01c8063853828b611610059578063853828b614610123578063a91795ec1461013a578063acae3f8f14610165578063cd3c6c261461016f578063f93150a51461018657610086565b806343381a061461008b5780635870cf2f146100b65780635b427270146100e15780637549487c1461010c575b600080fd5b34801561009757600080fd5b506100a0610190565b6040518082815260200191505060405180910390f35b3480156100c257600080fd5b506100cb610196565b6040518082815260200191505060405180910390f35b3480156100ed57600080fd5b506100f661019c565b6040518082815260200191505060405180910390f35b34801561011857600080fd5b5061012161027c565b005b34801561012f57600080fd5b50610138610471565b005b34801561014657600080fd5b5061014f61082d565b6040518082815260200191505060405180910390f35b61016d61090e565b005b34801561017b57600080fd5b50610184610a27565b005b61018e610c1e565b005b60025481565b60035481565b60008060009054906101000a900473ffffffffffffffffffffffffffffffffffffffff1673ffffffffffffffffffffffffffffffffffffffff1663e3a9db1a336040518263ffffffff1660e01b8152600401808273ffffffffffffffffffffffffffffffffffffffff1673ffffffffffffffffffffffffffffffffffffffff16815260200191505060206040518083038186803b15801561023c57600080fd5b505afa158015610250573d6000803e3d6000fd5b505050506040513d602081101561026657600080fd5b8101908080519060200190929190505050905090565b60008060009054906101000a900473ffffffffffffffffffffffffffffffffffffffff1673ffffffffffffffffffffffffffffffffffffffff1663e3a9db1a336040518263ffffffff1660e01b8152600401808273ffffffffffffffffffffffffffffffffffffffff1673ffffffffffffffffffffffffffffffffffffffff16815260200191505060206040518083038186803b15801561031c57600080fd5b505afa158015610330573d6000803e3d6000fd5b505050506040513d602081101561034657600080fd5b81019080805190602001909291905050509050600081111561046e57806002600082825403925050819055507f1c84baf2927a30fe53df0acfee116d2ac8b9aa13d183a95b0d77d857a765d151600254600354604051808381526020018281526020019250505060405180910390a16000809054906101000a900473ffffffffffffffffffffffffffffffffffffffff1673ffffffffffffffffffffffffffffffffffffffff166351cff8d9336040518263ffffffff1660e01b8152600401808273ffffffffffffffffffffffffffffffffffffffff1673ffffffffffffffffffffffffffffffffffffffff168152602001915050600060405180830381600087803b15801561045557600080fd5b505af1158015610469573d6000803e3d6000fd5b505050505b50565b60008060009054906101000a900473ffffffffffffffffffffffffffffffffffffffff1673ffffffffffffffffffffffffffffffffffffffff1663e3a9db1a336040518263ffffffff1660e01b8152600401808273ffffffffffffffffffffffffffffffffffffffff1673ffffffffffffffffffffffffffffffffffffffff16815260200191505060206040518083038186803b15801561051157600080fd5b505afa158015610525573d6000803e3d6000fd5b505050506040513d602081101561053b57600080fd5b81019080805190602001909291905050509050600081111561062057806002600082825403925050819055506000809054906101000a900473ffffffffffffffffffffffffffffffffffffffff1673ffffffffffffffffffffffffffffffffffffffff166351cff8d9336040518263ffffffff1660e01b8152600401808273ffffffffffffffffffffffffffffffffffffffff1673ffffffffffffffffffffffffffffffffffffffff168152602001915050600060405180830381600087803b15801561060757600080fd5b505af115801561061b573d6000803e3d6000fd5b505050505b6000600160009054906101000a900473ffffffffffffffffffffffffffffffffffffffff1673ffffffffffffffffffffffffffffffffffffffff1663e3a9db1a336040518263ffffffff1660e01b8152600401808273ffffffffffffffffffffffffffffffffffffffff1673ffffffffffffffffffffffffffffffffffffffff16815260200191505060206040518083038186803b1580156106c157600080fd5b505afa1580156106d5573d6000803e3d6000fd5b505050506040513d60208110156106eb57600080fd5b8101908080519060200190929190505050905060008111156107d15780600360008282540392505081905550600160009054906101000a900473ffffffffffffffffffffffffffffffffffffffff1673ffffffffffffffffffffffffffffffffffffffff166351cff8d9336040518263ffffffff1660e01b8152600401808273ffffffffffffffffffffffffffffffffffffffff1673ffffffffffffffffffffffffffffffffffffffff168152602001915050600060405180830381600087803b1580156107b857600080fd5b505af11580156107cc573d6000803e3d6000fd5b505050505b60008211806107e05750600081115b15610829577f1c84baf2927a30fe53df0acfee116d2ac8b9aa13d183a95b0d77d857a765d151600254600354604051808381526020018281526020019250505060405180910390a15b5050565b6000600160009054906101000a900473ffffffffffffffffffffffffffffffffffffffff1673ffffffffffffffffffffffffffffffffffffffff1663e3a9db1a336040518263ffffffff1660e01b8152600401808273ffffffffffffffffffffffffffffffffffffffff1673ffffffffffffffffffffffffffffffffffffffff16815260200191505060206040518083038186803b1580156108ce57600080fd5b505afa1580156108e2573d6000803e3d6000fd5b505050506040513d60208110156108f857600080fd5b8101908080519060200190929190505050905090565b6000341115610a2557600160009054906101000a900473ffffffffffffffffffffffffffffffffffffffff1673ffffffffffffffffffffffffffffffffffffffff1663f340fa0134336040518363ffffffff1660e01b8152600401808273ffffffffffffffffffffffffffffffffffffffff1673ffffffffffffffffffffffffffffffffffffffff1681526020019150506000604051808303818588803b1580156109b857600080fd5b505af11580156109cc573d6000803e3d6000fd5b5050505050346003600082825401925050819055507f1c84baf2927a30fe53df0acfee116d2ac8b9aa13d183a95b0d77d857a765d151600254600354604051808381526020018281526020019250505060405180910390a15b565b6000600160009054906101000a900473ffffffffffffffffffffffffffffffffffffffff1673ffffffffffffffffffffffffffffffffffffffff1663e3a9db1a336040518263ffffffff1660e01b8152600401808273ffffffffffffffffffffffffffffffffffffffff1673ffffffffffffffffffffffffffffffffffffffff16815260200191505060206040518083038186803b158015610ac857600080fd5b505afa158015610adc573d6000803e3d6000fd5b505050506040513d6020811015610af257600080fd5b810190808051906020019092919050505090506000811115610c1b57806003600082825403925050819055507f1c84baf2927a30fe53df0acfee116d2ac8b9aa13d183a95b0d77d857a765d151600254600354604051808381526020018281526020019250505060405180910390a1600160009054906101000a900473ffffffffffffffffffffffffffffffffffffffff1673ffffffffffffffffffffffffffffffffffffffff166351cff8d9336040518263ffffffff1660e01b8152600401808273ffffffffffffffffffffffffffffffffffffffff1673ffffffffffffffffffffffffffffffffffffffff168152602001915050600060405180830381600087803b158015610c0257600080fd5b505af1158015610c16573d6000803e3d6000fd5b505050505b50565b6000341115610d34576000809054906101000a900473ffffffffffffffffffffffffffffffffffffffff1673ffffffffffffffffffffffffffffffffffffffff1663f340fa0134336040518363ffffffff1660e01b8152600401808273ffffffffffffffffffffffffffffffffffffffff1673ffffffffffffffffffffffffffffffffffffffff1681526020019150506000604051808303818588803b158015610cc757600080fd5b505af1158015610cdb573d6000803e3d6000fd5b5050505050346002600082825401925050819055507f1c84baf2927a30fe53df0acfee116d2ac8b9aa13d183a95b0d77d857a765d151600254600354604051808381526020018281526020019250505060405180910390a15b56fea165627a7a72305820635d2161437a10901bdff1b88b296c07c2565c27e7c68a8e106ff600bef4c0a300296080604052336000806101000a81548173ffffffffffffffffffffffffffffffffffffffff021916908373ffffffffffffffffffffffffffffffffffffffff1602179055507f4101e71e974f68df5e9730cc223280b41654676bbb052cdcc735c3337e64d2d96000809054906101000a900473ffffffffffffffffffffffffffffffffffffffff16604051808273ffffffffffffffffffffffffffffffffffffffff1673ffffffffffffffffffffffffffffffffffffffff16815260200191505060405180910390a16108b7806100d76000396000f3fe60806040526004361061004a5760003560e01c80632348238c1461004f57806351cff8d9146100a0578063c6dbdf61146100f1578063e3a9db1a14610148578063f340fa01146101ad575b600080fd5b34801561005b57600080fd5b5061009e6004803603602081101561007257600080fd5b81019080803573ffffffffffffffffffffffffffffffffffffffff1690602001909291905050506101f1565b005b3480156100ac57600080fd5b506100ef600480360360208110156100c357600080fd5b81019080803573ffffffffffffffffffffffffffffffffffffffff1690602001909291905050506103e3565b005b3480156100fd57600080fd5b506101066105aa565b604051808273ffffffffffffffffffffffffffffffffffffffff1673ffffffffffffffffffffffffffffffffffffffff16815260200191505060405180910390f35b34801561015457600080fd5b506101976004803603602081101561016b57600080fd5b81019080803573ffffffffffffffffffffffffffffffffffffffff1690602001909291905050506105d3565b6040518082815260200191505060405180910390f35b6101ef600480360360208110156101c357600080fd5b81019080803573ffffffffffffffffffffffffffffffffffffffff16906020019092919050505061061c565b005b6000809054906101000a900473ffffffffffffffffffffffffffffffffffffffff1673ffffffffffffffffffffffffffffffffffffffff163373ffffffffffffffffffffffffffffffffffffffff1614610296576040517f08c379a000000000000000000000000000000000000000000000000000000000815260040180806020018281038252602c815260200180610860602c913960400191505060405180910390fd5b600073ffffffffffffffffffffffffffffffffffffffff168173ffffffffffffffffffffffffffffffffffffffff16141561031c576040517f08c379a000000000000000000000000000000000000000000000000000000000815260040180806020018281038252602a815260200180610836602a913960400191505060405180910390fd5b806000806101000a81548173ffffffffffffffffffffffffffffffffffffffff021916908373ffffffffffffffffffffffffffffffffffffffff1602179055507f4101e71e974f68df5e9730cc223280b41654676bbb052cdcc735c3337e64d2d96000809054906101000a900473ffffffffffffffffffffffffffffffffffffffff16604051808273ffffffffffffffffffffffffffffffffffffffff1673ffffffffffffffffffffffffffffffffffffffff16815260200191505060405180910390a150565b6000809054906101000a900473ffffffffffffffffffffffffffffffffffffffff1673ffffffffffffffffffffffffffffffffffffffff163373ffffffffffffffffffffffffffffffffffffffff1614610488576040517f08c379a000000000000000000000000000000000000000000000000000000000815260040180806020018281038252602c815260200180610860602c913960400191505060405180910390fd5b6000600160008373ffffffffffffffffffffffffffffffffffffffff1673ffffffffffffffffffffffffffffffffffffffff1681526020019081526020016000205490506000600160008473ffffffffffffffffffffffffffffffffffffffff1673ffffffffffffffffffffffffffffffffffffffff168152602001908152602001600020819055508173ffffffffffffffffffffffffffffffffffffffff166108fc829081150290604051600060405180830381858888f19350505050158015610557573d6000803e3d6000fd5b508173ffffffffffffffffffffffffffffffffffffffff167f7084f5476618d8e60b11ef0d7d3f06914655adb8793e28ff7f018d4c76d505d5826040518082815260200191505060405180910390a25050565b60008060009054906101000a900473ffffffffffffffffffffffffffffffffffffffff16905090565b6000600160008373ffffffffffffffffffffffffffffffffffffffff1673ffffffffffffffffffffffffffffffffffffffff168152602001908152602001600020549050919050565b6000809054906101000a900473ffffffffffffffffffffffffffffffffffffffff1673ffffffffffffffffffffffffffffffffffffffff163373ffffffffffffffffffffffffffffffffffffffff16146106c1576040517f08c379a000000000000000000000000000000000000000000000000000000000815260040180806020018281038252602c815260200180610860602c913960400191505060405180910390fd5b600034905061071881600160008573ffffffffffffffffffffffffffffffffffffffff1673ffffffffffffffffffffffffffffffffffffffff168152602001908152602001600020546107ad90919063ffffffff16565b600160008473ffffffffffffffffffffffffffffffffffffffff1673ffffffffffffffffffffffffffffffffffffffff168152602001908152602001600020819055508173ffffffffffffffffffffffffffffffffffffffff167f2da466a7b24304f47e87fa2e1e5a81b9831ce54fec19055ce277ca2f39ba42c4826040518082815260200191505060405180910390a25050565b60008082840190508381101561082b576040517f08c379a000000000000000000000000000000000000000000000000000000000815260040180806020018281038252601b8152602001807f536166654d6174683a206164646974696f6e206f766572666c6f77000000000081525060200191505060405180910390fd5b809150509291505056fe5365636f6e646172793a206e6577207072696d61727920697320746865207a65726f20616464726573735365636f6e646172793a2063616c6c6572206973206e6f7420746865207072696d617279206163636f756e74a165627a7a72305820025c92e258cc4e680c3e24544c08954aa78b90b7cba1e4cc9993d13bab2aec4c00296080604052336000806101000a81548173ffffffffffffffffffffffffffffffffffffffff021916908373ffffffffffffffffffffffffffffffffffffffff1602179055507f4101e71e974f68df5e9730cc223280b41654676bbb052cdcc735c3337e64d2d96000809054906101000a900473ffffffffffffffffffffffffffffffffffffffff16604051808273ffffffffffffffffffffffffffffffffffffffff1673ffffffffffffffffffffffffffffffffffffffff16815260200191505060405180910390a16108b7806100d76000396000f3fe60806040526004361061004a5760003560e01c80632348238c1461004f57806351cff8d9146100a0578063c6dbdf61146100f1578063e3a9db1a14610148578063f340fa01146101ad575b600080fd5b34801561005b57600080fd5b5061009e6004803603602081101561007257600080fd5b81019080803573ffffffffffffffffffffffffffffffffffffffff1690602001909291905050506101f1565b005b3480156100ac57600080fd5b506100ef600480360360208110156100c357600080fd5b81019080803573ffffffffffffffffffffffffffffffffffffffff1690602001909291905050506103e3565b005b3480156100fd57600080fd5b506101066105aa565b604051808273ffffffffffffffffffffffffffffffffffffffff1673ffffffffffffffffffffffffffffffffffffffff16815260200191505060405180910390f35b34801561015457600080fd5b506101976004803603602081101561016b57600080fd5b81019080803573ffffffffffffffffffffffffffffffffffffffff1690602001909291905050506105d3565b6040518082815260200191505060405180910390f35b6101ef600480360360208110156101c357600080fd5b81019080803573ffffffffffffffffffffffffffffffffffffffff16906020019092919050505061061c565b005b6000809054906101000a900473ffffffffffffffffffffffffffffffffffffffff1673ffffffffffffffffffffffffffffffffffffffff163373ffffffffffffffffffffffffffffffffffffffff1614610296576040517f08c379a000000000000000000000000000000000000000000000000000000000815260040180806020018281038252602c815260200180610860602c913960400191505060405180910390fd5b600073ffffffffffffffffffffffffffffffffffffffff168173ffffffffffffffffffffffffffffffffffffffff16141561031c576040517f08c379a000000000000000000000000000000000000000000000000000000000815260040180806020018281038252602a815260200180610836602a913960400191505060405180910390fd5b806000806101000a81548173ffffffffffffffffffffffffffffffffffffffff021916908373ffffffffffffffffffffffffffffffffffffffff1602179055507f4101e71e974f68df5e9730cc223280b41654676bbb052cdcc735c3337e64d2d96000809054906101000a900473ffffffffffffffffffffffffffffffffffffffff16604051808273ffffffffffffffffffffffffffffffffffffffff1673ffffffffffffffffffffffffffffffffffffffff16815260200191505060405180910390a150565b6000809054906101000a900473ffffffffffffffffffffffffffffffffffffffff1673ffffffffffffffffffffffffffffffffffffffff163373ffffffffffffffffffffffffffffffffffffffff1614610488576040517f08c379a000000000000000000000000000000000000000000000000000000000815260040180806020018281038252602c815260200180610860602c913960400191505060405180910390fd5b6000600160008373ffffffffffffffffffffffffffffffffffffffff1673ffffffffffffffffffffffffffffffffffffffff1681526020019081526020016000205490506000600160008473ffffffffffffffffffffffffffffffffffffffff1673ffffffffffffffffffffffffffffffffffffffff168152602001908152602001600020819055508173ffffffffffffffffffffffffffffffffffffffff166108fc829081150290604051600060405180830381858888f19350505050158015610557573d6000803e3d6000fd5b508173ffffffffffffffffffffffffffffffffffffffff167f7084f5476618d8e60b11ef0d7d3f06914655adb8793e28ff7f018d4c76d505d5826040518082815260200191505060405180910390a25050565b60008060009054906101000a900473ffffffffffffffffffffffffffffffffffffffff16905090565b6000600160008373ffffffffffffffffffffffffffffffffffffffff1673ffffffffffffffffffffffffffffffffffffffff168152602001908152602001600020549050919050565b6000809054906101000a900473ffffffffffffffffffffffffffffffffffffffff1673ffffffffffffffffffffffffffffffffffffffff163373ffffffffffffffffffffffffffffffffffffffff16146106c1576040517f08c379a000000000000000000000000000000000000000000000000000000000815260040180806020018281038252602c815260200180610860602c913960400191505060405180910390fd5b600034905061071881600160008573ffffffffffffffffffffffffffffffffffffffff1673ffffffffffffffffffffffffffffffffffffffff168152602001908152602001600020546107ad90919063ffffffff16565b600160008473ffffffffffffffffffffffffffffffffffffffff1673ffffffffffffffffffffffffffffffffffffffff168152602001908152602001600020819055508173ffffffffffffffffffffffffffffffffffffffff167f2da466a7b24304f47e87fa2e1e5a81b9831ce54fec19055ce277ca2f39ba42c4826040518082815260200191505060405180910390a25050565b60008082840190508381101561082b576040517f08c379a000000000000000000000000000000000000000000000000000000000815260040180806020018281038252601b8152602001807f536166654d6174683a206164646974696f6e206f766572666c6f77000000000081525060200191505060405180910390fd5b809150509291505056fe5365636f6e646172793a206e6577207072696d61727920697320746865207a65726f20616464726573735365636f6e646172793a2063616c6c6572206973206e6f7420746865207072696d617279206163636f756e74a165627a7a723058203f52e80bc310239a66c8ce8819ed31f22a82a8a57d3243efc98ba56ad3f109610029",
  "source": "pragma solidity ^0.5.0;\n\nimport './AStakes.sol';\nimport './BStakes.sol';\n\ncontract StakingRatio {\n    // Emitted when the ratio changes\n    event Ratio(uint256 a, uint256 b);\n\n    AStakes aStakes;\n    BStakes bStakes;\n\n    // The total amount staked\n    uint256 public aAmount;\n    uint256 public bAmount;\n\n    constructor() public {\n        aStakes = new AStakes();\n        bStakes = new BStakes();\n    }\n\n    function stakeA() external payable {\n        if (msg.value > 0) {\n            aStakes.deposit.value(msg.value)(msg.sender);\n            aAmount += msg.value;\n            emit Ratio(aAmount, bAmount);\n        }\n    }\n\n    function stakeB() external payable {\n        if (msg.value > 0) {\n            bStakes.deposit.value(msg.value)(msg.sender);\n            bAmount += msg.value;\n            emit Ratio(aAmount, bAmount);\n        }\n    }\n\n    function myAStake() external view returns (uint256) {\n        return aStakes.depositsOf(msg.sender);\n    }\n\n    function myBStake() external view returns (uint256) {\n        return bStakes.depositsOf(msg.sender);\n    }\n\n    function withdrawA() external {\n        uint256 withdrawal = aStakes.depositsOf(msg.sender);\n        if (withdrawal > 0) {\n            aAmount -= withdrawal;\n            emit Ratio(aAmount, bAmount);\n            aStakes.withdraw(msg.sender);\n        }\n    }\n\n    function withdrawB() external {\n        uint256 withdrawal = bStakes.depositsOf(msg.sender);\n        if (withdrawal > 0) {\n            bAmount -= withdrawal;\n            emit Ratio(aAmount, bAmount);\n            bStakes.withdraw(msg.sender);\n        }\n    }\n\n    // Copy and paste some code rather than make utility functions to share\n    // with awkward logic and a larger attack surface.\n    \n    function withdrawAll() external {\n        uint256 aWithdrawal = aStakes.depositsOf(msg.sender);\n        if (aWithdrawal > 0) {\n            aAmount -= aWithdrawal;\n            aStakes.withdraw(msg.sender);\n        }\n        uint256 bWithdrawal = bStakes.depositsOf(msg.sender);\n        if (bWithdrawal > 0) {\n            bAmount -= bWithdrawal;\n            bStakes.withdraw(msg.sender);\n        }\n        if ((aWithdrawal > 0) || (bWithdrawal > 0)) {\n            emit Ratio(aAmount, bAmount);\n        }\n    }\n}\n",
  "sourcePath": "/home/rob/projects/artworld-ethereum/dapps/staking-ratio/contracts/StakingRatio.sol",
  "compiler": {
    "name": "solc",
    "version": "0.5.8+commit.23d335f2.Emscripten.clang"
  },
  "schemaVersion": "3.0.11",
  "updatedAt": "2019-09-16T00:16:24.180Z",
  "devdoc": {
    "methods": {}
  },
  "userdoc": {
    "methods": {}
  }
}