{
  "contractName": "PayPreviousPath",
  "abi": [
    {
      "constant": true,
      "inputs": [],
      "name": "T_MOVETO",
      "outputs": [
        {
          "name": "",
          "type": "uint8"
        }
      ],
      "payable": false,
      "stateMutability": "view",
      "type": "function"
    },
    {
      "constant": true,
      "inputs": [],
      "name": "T_LINETO",
      "outputs": [
        {
          "name": "",
          "type": "uint8"
        }
      ],
      "payable": false,
      "stateMutability": "view",
      "type": "function"
    },
    {
      "constant": true,
      "inputs": [],
      "name": "T_RELATIVE",
      "outputs": [
        {
          "name": "",
          "type": "uint8"
        }
      ],
      "payable": false,
      "stateMutability": "view",
      "type": "function"
    },
    {
      "constant": true,
      "inputs": [
        {
          "name": "",
          "type": "uint256"
        }
      ],
      "name": "pointX",
      "outputs": [
        {
          "name": "",
          "type": "int8"
        }
      ],
      "payable": false,
      "stateMutability": "view",
      "type": "function"
    },
    {
      "constant": true,
      "inputs": [],
      "name": "T_CLOSEPATH",
      "outputs": [
        {
          "name": "",
          "type": "uint8"
        }
      ],
      "payable": false,
      "stateMutability": "view",
      "type": "function"
    },
    {
      "constant": false,
      "inputs": [
        {
          "name": "payee",
          "type": "address"
        }
      ],
      "name": "withdrawPayments",
      "outputs": [],
      "payable": false,
      "stateMutability": "nonpayable",
      "type": "function"
    },
    {
      "constant": true,
      "inputs": [
        {
          "name": "",
          "type": "uint256"
        }
      ],
      "name": "pointY1",
      "outputs": [
        {
          "name": "",
          "type": "int8"
        }
      ],
      "payable": false,
      "stateMutability": "view",
      "type": "function"
    },
    {
      "constant": true,
      "inputs": [],
      "name": "T_CURVETO_BEZIER",
      "outputs": [
        {
          "name": "",
          "type": "uint8"
        }
      ],
      "payable": false,
      "stateMutability": "view",
      "type": "function"
    },
    {
      "constant": true,
      "inputs": [
        {
          "name": "",
          "type": "uint256"
        }
      ],
      "name": "pointY",
      "outputs": [
        {
          "name": "",
          "type": "int8"
        }
      ],
      "payable": false,
      "stateMutability": "view",
      "type": "function"
    },
    {
      "constant": true,
      "inputs": [
        {
          "name": "",
          "type": "uint256"
        }
      ],
      "name": "pointX2",
      "outputs": [
        {
          "name": "",
          "type": "int8"
        }
      ],
      "payable": false,
      "stateMutability": "view",
      "type": "function"
    },
    {
      "constant": true,
      "inputs": [
        {
          "name": "",
          "type": "uint256"
        }
      ],
      "name": "pointX1",
      "outputs": [
        {
          "name": "",
          "type": "int8"
        }
      ],
      "payable": false,
      "stateMutability": "view",
      "type": "function"
    },
    {
      "constant": true,
      "inputs": [],
      "name": "T_CURVETO_QUADRATIC",
      "outputs": [
        {
          "name": "",
          "type": "uint8"
        }
      ],
      "payable": false,
      "stateMutability": "view",
      "type": "function"
    },
    {
      "constant": true,
      "inputs": [
        {
          "name": "",
          "type": "uint256"
        }
      ],
      "name": "pointY2",
      "outputs": [
        {
          "name": "",
          "type": "int8"
        }
      ],
      "payable": false,
      "stateMutability": "view",
      "type": "function"
    },
    {
      "constant": true,
      "inputs": [
        {
          "name": "",
          "type": "uint256"
        }
      ],
      "name": "pointCommand",
      "outputs": [
        {
          "name": "",
          "type": "uint8"
        }
      ],
      "payable": false,
      "stateMutability": "view",
      "type": "function"
    },
    {
      "constant": true,
      "inputs": [],
      "name": "previousPayer",
      "outputs": [
        {
          "name": "",
          "type": "address"
        }
      ],
      "payable": false,
      "stateMutability": "view",
      "type": "function"
    },
    {
      "constant": true,
      "inputs": [
        {
          "name": "dest",
          "type": "address"
        }
      ],
      "name": "payments",
      "outputs": [
        {
          "name": "",
          "type": "uint256"
        }
      ],
      "payable": false,
      "stateMutability": "view",
      "type": "function"
    },
    {
      "inputs": [],
      "payable": false,
      "stateMutability": "nonpayable",
      "type": "constructor"
    },
    {
      "anonymous": false,
      "inputs": [
        {
          "indexed": true,
          "name": "by",
          "type": "address"
        },
        {
          "indexed": false,
          "name": "command",
          "type": "uint8[32]"
        },
        {
          "indexed": false,
          "name": "x1",
          "type": "int8[32]"
        },
        {
          "indexed": false,
          "name": "y1",
          "type": "int8[32]"
        },
        {
          "indexed": false,
          "name": "x2",
          "type": "int8[32]"
        },
        {
          "indexed": false,
          "name": "y2",
          "type": "int8[32]"
        },
        {
          "indexed": false,
          "name": "x",
          "type": "int8[32]"
        },
        {
          "indexed": false,
          "name": "y",
          "type": "int8[32]"
        }
      ],
      "name": "PathChanged",
      "type": "event"
    },
    {
      "constant": true,
      "inputs": [
        {
          "name": "_gasPrice",
          "type": "uint256"
        }
      ],
      "name": "calculateFee",
      "outputs": [
        {
          "name": "",
          "type": "uint256"
        }
      ],
      "payable": false,
      "stateMutability": "pure",
      "type": "function"
    },
    {
      "constant": false,
      "inputs": [
        {
          "name": "_command",
          "type": "uint8[32]"
        },
        {
          "name": "_x1",
          "type": "int8[32]"
        },
        {
          "name": "_y1",
          "type": "int8[32]"
        },
        {
          "name": "_x2",
          "type": "int8[32]"
        },
        {
          "name": "_y2",
          "type": "int8[32]"
        },
        {
          "name": "_x",
          "type": "int8[32]"
        },
        {
          "name": "_y",
          "type": "int8[32]"
        }
      ],
      "name": "setPath",
      "outputs": [],
      "payable": true,
      "stateMutability": "payable",
      "type": "function"
    },
    {
      "constant": true,
      "inputs": [],
      "name": "getPath",
      "outputs": [
        {
          "name": "command",
          "type": "uint8[32]"
        },
        {
          "name": "x1",
          "type": "int8[32]"
        },
        {
          "name": "y1",
          "type": "int8[32]"
        },
        {
          "name": "x2",
          "type": "int8[32]"
        },
        {
          "name": "y2",
          "type": "int8[32]"
        },
        {
          "name": "x",
          "type": "int8[32]"
        },
        {
          "name": "y",
          "type": "int8[32]"
        }
      ],
      "payable": false,
      "stateMutability": "view",
      "type": "function"
    }
  ],
  "bytecode": "0x60806040523480156200001157600080fd5b506040516200002090620003f8565b604051809103906000f0801580156200003d573d6000803e3d6000fd5b506000806101000a81548173ffffffffffffffffffffffffffffffffffffffff021916908373ffffffffffffffffffffffffffffffffffffffff16021790555033600860006101000a81548173ffffffffffffffffffffffffffffffffffffffff021916908373ffffffffffffffffffffffffffffffffffffffff160217905550600180600060208110620000ce57fe5b602091828204019190066101000a81548160ff021916908360ff160217905550600a6006600060208110620000ff57fe5b602091828204019190066101000a81548160ff021916908360000b60ff160217905550601460076000602081106200013357fe5b602091828204019190066101000a81548160ff021916908360000b60ff1602179055506002600180602081106200016657fe5b602091828204019190066101000a81548160ff021916908360ff160217905550605060066001602081106200019757fe5b602091828204019190066101000a81548160ff021916908360000b60ff16021790555060786007600160208110620001cb57fe5b602091828204019190066101000a81548160ff021916908360000b60ff16021790555060036001600260208110620001ff57fe5b602091828204019190066101000a81548160ff021916908360ff160217905550600c600280602081106200022f57fe5b602091828204019190066101000a81548160ff021916908360000b60ff160217905550601e60036002602081106200026357fe5b602091828204019190066101000a81548160ff021916908360000b60ff160217905550602860046002602081106200029757fe5b602091828204019190066101000a81548160ff021916908360000b60ff160217905550603c6005600260208110620002cb57fe5b602091828204019190066101000a81548160ff021916908360000b60ff16021790555060786006600260208110620002ff57fe5b602091828204019190066101000a81548160ff021916908360000b60ff160217905550601460076002602081106200033357fe5b602091828204019190066101000a81548160ff021916908360000b60ff160217905550608060020160016003602081106200036a57fe5b602091828204019190066101000a81548160ff021916908360ff160217905550602160066003602081106200039b57fe5b602091828204019190066101000a81548160ff021916908360000b60ff160217905550600e6007600360208110620003cf57fe5b602091828204019190066101000a81548160ff021916908360000b60ff16021790555062000406565b61098e8062001a0d83390190565b6115f780620004166000396000f3fe6080604052600436106101145760003560e01c80635be9d1d8116100a0578063aee7024b11610064578063aee7024b146107a9578063afe50cf9146107da578063c76f9dfb1461082f578063d36ad1ad14610884578063e2982c21146108db57610114565b80635be9d1d81461046f5780637c74e588146104c457806392ee2573146106b057806399a5d74714610705578063a1d41b191461075457610114565b80632f6e7539116100e75780632f6e75391461020157806331b3eb94146102325780633d0d3a181461028357806344eb527f146102d8578063555b37be1461030957610114565b806301ffd240146101195780630cb27eb61461014a5780630dd179691461017b57806322b93835146101ac575b600080fd5b34801561012557600080fd5b5061012e610940565b604051808260ff1660ff16815260200191505060405180910390f35b34801561015657600080fd5b5061015f610945565b604051808260ff1660ff16815260200191505060405180910390f35b34801561018757600080fd5b5061019061094a565b604051808260ff1660ff16815260200191505060405180910390f35b3480156101b857600080fd5b506101e5600480360360208110156101cf57600080fd5b810190808035906020019092919050505061094f565b604051808260000b60000b815260200191505060405180910390f35b34801561020d57600080fd5b50610216610976565b604051808260ff1660ff16815260200191505060405180910390f35b34801561023e57600080fd5b506102816004803603602081101561025557600080fd5b81019080803573ffffffffffffffffffffffffffffffffffffffff16906020019092919050505061097b565b005b34801561028f57600080fd5b506102bc600480360360208110156102a657600080fd5b8101908080359060200190929190505050610a36565b604051808260000b60000b815260200191505060405180910390f35b3480156102e457600080fd5b506102ed610a5d565b604051808260ff1660ff16815260200191505060405180910390f35b34801561031557600080fd5b5061031e610a62565b60405180886020800280838360005b8381101561034857808201518184015260208101905061032d565b50505050905001876020800280838360005b8381101561037557808201518184015260208101905061035a565b50505050905001866020800280838360005b838110156103a2578082015181840152602081019050610387565b50505050905001856020800280838360005b838110156103cf5780820151818401526020810190506103b4565b50505050905001846020800280838360005b838110156103fc5780820151818401526020810190506103e1565b50505050905001836020800280838360005b8381101561042957808201518184015260208101905061040e565b50505050905001826020800280838360005b8381101561045657808201518184015260208101905061043b565b5050505090500197505050505050505060405180910390f35b34801561047b57600080fd5b506104a86004803603602081101561049257600080fd5b8101908080359060200190929190505050610d6d565b604051808260000b60000b815260200191505060405180910390f35b6106ae6004803603611c008110156104db57600080fd5b8101908080610400019060208060200260405190810160405280929190826020800280828437600081840152601f19601f820116905080830192505050505050919291929080610400019060208060200260405190810160405280929190826020800280828437600081840152601f19601f820116905080830192505050505050919291929080610400019060208060200260405190810160405280929190826020800280828437600081840152601f19601f820116905080830192505050505050919291929080610400019060208060200260405190810160405280929190826020800280828437600081840152601f19601f820116905080830192505050505050919291929080610400019060208060200260405190810160405280929190826020800280828437600081840152601f19601f820116905080830192505050505050919291929080610400019060208060200260405190810160405280929190826020800280828437600081840152601f19601f820116905080830192505050505050919291929080610400019060208060200260405190810160405280929190826020800280828437600081840152601f19601f8201169050808301925050505050509192919290505050610d94565b005b3480156106bc57600080fd5b506106e9600480360360208110156106d357600080fd5b810190808035906020019092919050505061117a565b604051808260000b60000b815260200191505060405180910390f35b34801561071157600080fd5b5061073e6004803603602081101561072857600080fd5b81019080803590602001909291905050506111a1565b6040518082815260200191505060405180910390f35b34801561076057600080fd5b5061078d6004803603602081101561077757600080fd5b81019080803590602001909291905050506111af565b604051808260000b60000b815260200191505060405180910390f35b3480156107b557600080fd5b506107be6111d6565b604051808260ff1660ff16815260200191505060405180910390f35b3480156107e657600080fd5b50610813600480360360208110156107fd57600080fd5b81019080803590602001909291905050506111db565b604051808260000b60000b815260200191505060405180910390f35b34801561083b57600080fd5b506108686004803603602081101561085257600080fd5b8101908080359060200190929190505050611202565b604051808260ff1660ff16815260200191505060405180910390f35b34801561089057600080fd5b50610899611229565b604051808273ffffffffffffffffffffffffffffffffffffffff1673ffffffffffffffffffffffffffffffffffffffff16815260200191505060405180910390f35b3480156108e757600080fd5b5061092a600480360360208110156108fe57600080fd5b81019080803573ffffffffffffffffffffffffffffffffffffffff16906020019092919050505061124f565b6040518082815260200191505060405180910390f35b600181565b600281565b604081565b6006816020811061095c57fe5b60209182820401919006915054906101000a900460000b81565b608081565b6000809054906101000a900473ffffffffffffffffffffffffffffffffffffffff1673ffffffffffffffffffffffffffffffffffffffff166351cff8d9826040518263ffffffff1660e01b8152600401808273ffffffffffffffffffffffffffffffffffffffff1673ffffffffffffffffffffffffffffffffffffffff168152602001915050600060405180830381600087803b158015610a1b57600080fd5b505af1158015610a2f573d6000803e3d6000fd5b5050505050565b60038160208110610a4357fe5b60209182820401919006915054906101000a900460000b81565b600381565b610a6a6113ee565b610a72611411565b610a7a611411565b610a82611411565b610a8a611411565b610a92611411565b610a9a611411565b6001602080602002604051908101604052809291908260208015610af9576020028201916000905b82829054906101000a900460ff1660ff1681526020019060010190602082600001049283019260010382029150808411610ac25790505b505050505096506002602080602002604051908101604052809291908260208015610b5f576020028201916000905b82829054906101000a900460000b60000b81526020019060010190602082600001049283019260010382029150808411610b285790505b505050505095506003602080602002604051908101604052809291908260208015610bc5576020028201916000905b82829054906101000a900460000b60000b81526020019060010190602082600001049283019260010382029150808411610b8e5790505b505050505094506004602080602002604051908101604052809291908260208015610c2b576020028201916000905b82829054906101000a900460000b60000b81526020019060010190602082600001049283019260010382029150808411610bf45790505b505050505093506005602080602002604051908101604052809291908260208015610c91576020028201916000905b82829054906101000a900460000b60000b81526020019060010190602082600001049283019260010382029150808411610c5a5790505b505050505092506006602080602002604051908101604052809291908260208015610cf7576020028201916000905b82829054906101000a900460000b60000b81526020019060010190602082600001049283019260010382029150808411610cc05790505b505050505091506007602080602002604051908101604052809291908260208015610d5d576020028201916000905b82829054906101000a900460000b60000b81526020019060010190602082600001049283019260010382029150808411610d265790505b5050505050905090919293949596565b60078160208110610d7a57fe5b60209182820401919006915054906101000a900460000b81565b6000610d9f3a6111a1565b9050803414610e16576040517f08c379a000000000000000000000000000000000000000000000000000000000815260040180806020018281038252600d8152602001807f496e636f7272656374206665650000000000000000000000000000000000000081525060200191505060405180910390fd5b610e42600860009054906101000a900473ffffffffffffffffffffffffffffffffffffffff1682611331565b33600860006101000a81548173ffffffffffffffffffffffffffffffffffffffff021916908373ffffffffffffffffffffffffffffffffffffffff160217905550876001906020610e94929190611434565b50866002906020610ea69291906114ce565b50856003906020610eb89291906114ce565b50846004906020610eca9291906114ce565b50836005906020610edc9291906114ce565b50826006906020610eee9291906114ce565b50816007906020610f009291906114ce565b503373ffffffffffffffffffffffffffffffffffffffff167fabb8278b9ff7b59d7c5ac2a09903d93e570836eeb4ad6071e32e69b0af888d8d6001600260036004600560066007604051808860208015610f95576020028201916000905b82829054906101000a900460ff1660ff1681526020019060010190602082600001049283019260010382029150808411610f5e5790505b50508760208015610fe1576020028201916000905b82829054906101000a900460000b60000b81526020019060010190602082600001049283019260010382029150808411610faa5790505b5050866020801561102d576020028201916000905b82829054906101000a900460000b60000b81526020019060010190602082600001049283019260010382029150808411610ff65790505b50508560208015611079576020028201916000905b82829054906101000a900460000b60000b815260200190600101906020826000010492830192600103820291508084116110425790505b505084602080156110c5576020028201916000905b82829054906101000a900460000b60000b8152602001906001019060208260000104928301926001038202915080841161108e5790505b50508360208015611111576020028201916000905b82829054906101000a900460000b60000b815260200190600101906020826000010492830192600103820291508084116110da5790505b5050826020801561115d576020028201916000905b82829054906101000a900460000b60000b815260200190600101906020826000010492830192600103820291508084116111265790505b505097505050505050505060405180910390a25050505050505050565b6004816020811061118757fe5b60209182820401919006915054906101000a900460000b81565b6000816108fc029050919050565b600281602081106111bc57fe5b60209182820401919006915054906101000a900460000b81565b600481565b600581602081106111e857fe5b60209182820401919006915054906101000a900460000b81565b6001816020811061120f57fe5b60209182820401919006915054906101000a900460ff1681565b600860009054906101000a900473ffffffffffffffffffffffffffffffffffffffff1681565b60008060009054906101000a900473ffffffffffffffffffffffffffffffffffffffff1673ffffffffffffffffffffffffffffffffffffffff1663e3a9db1a836040518263ffffffff1660e01b8152600401808273ffffffffffffffffffffffffffffffffffffffff1673ffffffffffffffffffffffffffffffffffffffff16815260200191505060206040518083038186803b1580156112ef57600080fd5b505afa158015611303573d6000803e3d6000fd5b505050506040513d602081101561131957600080fd5b81019080805190602001909291905050509050919050565b6000809054906101000a900473ffffffffffffffffffffffffffffffffffffffff1673ffffffffffffffffffffffffffffffffffffffff1663f340fa0182846040518363ffffffff1660e01b8152600401808273ffffffffffffffffffffffffffffffffffffffff1673ffffffffffffffffffffffffffffffffffffffff1681526020019150506000604051808303818588803b1580156113d157600080fd5b505af11580156113e5573d6000803e3d6000fd5b50505050505050565b604051806104000160405280602090602082028038833980820191505090505090565b604051806104000160405280602090602082028038833980820191505090505090565b826020601f016020900481019282156114bd5791602002820160005b8382111561148e57835183826101000a81548160ff021916908360ff1602179055509260200192600101602081600001049283019260010302611450565b80156114bb5782816101000a81549060ff021916905560010160208160000104928301926001030261148e565b505b5090506114ca919061156b565b5090565b826020601f0160209004810192821561155a5791602002820160005b8382111561152b57835183826101000a81548160ff021916908360000b60ff16021790555092602001926001016020816000010492830192600103026114ea565b80156115585782816101000a81549060ff021916905560010160208160000104928301926001030261152b565b505b509050611567919061159b565b5090565b61159891905b8082111561159457600081816101000a81549060ff021916905550600101611571565b5090565b90565b6115c891905b808211156115c457600081816101000a81549060ff0219169055506001016115a1565b5090565b9056fea165627a7a723058205b6558e8823c451407ecda79a4d27c041a1cc7017335b57fdb00c22738f004c900296080604052336000806101000a81548173ffffffffffffffffffffffffffffffffffffffff021916908373ffffffffffffffffffffffffffffffffffffffff1602179055507f4101e71e974f68df5e9730cc223280b41654676bbb052cdcc735c3337e64d2d96000809054906101000a900473ffffffffffffffffffffffffffffffffffffffff16604051808273ffffffffffffffffffffffffffffffffffffffff1673ffffffffffffffffffffffffffffffffffffffff16815260200191505060405180910390a16108b7806100d76000396000f3fe60806040526004361061004a5760003560e01c80632348238c1461004f57806351cff8d9146100a0578063c6dbdf61146100f1578063e3a9db1a14610148578063f340fa01146101ad575b600080fd5b34801561005b57600080fd5b5061009e6004803603602081101561007257600080fd5b81019080803573ffffffffffffffffffffffffffffffffffffffff1690602001909291905050506101f1565b005b3480156100ac57600080fd5b506100ef600480360360208110156100c357600080fd5b81019080803573ffffffffffffffffffffffffffffffffffffffff1690602001909291905050506103e3565b005b3480156100fd57600080fd5b506101066105aa565b604051808273ffffffffffffffffffffffffffffffffffffffff1673ffffffffffffffffffffffffffffffffffffffff16815260200191505060405180910390f35b34801561015457600080fd5b506101976004803603602081101561016b57600080fd5b81019080803573ffffffffffffffffffffffffffffffffffffffff1690602001909291905050506105d3565b6040518082815260200191505060405180910390f35b6101ef600480360360208110156101c357600080fd5b81019080803573ffffffffffffffffffffffffffffffffffffffff16906020019092919050505061061c565b005b6000809054906101000a900473ffffffffffffffffffffffffffffffffffffffff1673ffffffffffffffffffffffffffffffffffffffff163373ffffffffffffffffffffffffffffffffffffffff1614610296576040517f08c379a000000000000000000000000000000000000000000000000000000000815260040180806020018281038252602c815260200180610860602c913960400191505060405180910390fd5b600073ffffffffffffffffffffffffffffffffffffffff168173ffffffffffffffffffffffffffffffffffffffff16141561031c576040517f08c379a000000000000000000000000000000000000000000000000000000000815260040180806020018281038252602a815260200180610836602a913960400191505060405180910390fd5b806000806101000a81548173ffffffffffffffffffffffffffffffffffffffff021916908373ffffffffffffffffffffffffffffffffffffffff1602179055507f4101e71e974f68df5e9730cc223280b41654676bbb052cdcc735c3337e64d2d96000809054906101000a900473ffffffffffffffffffffffffffffffffffffffff16604051808273ffffffffffffffffffffffffffffffffffffffff1673ffffffffffffffffffffffffffffffffffffffff16815260200191505060405180910390a150565b6000809054906101000a900473ffffffffffffffffffffffffffffffffffffffff1673ffffffffffffffffffffffffffffffffffffffff163373ffffffffffffffffffffffffffffffffffffffff1614610488576040517f08c379a000000000000000000000000000000000000000000000000000000000815260040180806020018281038252602c815260200180610860602c913960400191505060405180910390fd5b6000600160008373ffffffffffffffffffffffffffffffffffffffff1673ffffffffffffffffffffffffffffffffffffffff1681526020019081526020016000205490506000600160008473ffffffffffffffffffffffffffffffffffffffff1673ffffffffffffffffffffffffffffffffffffffff168152602001908152602001600020819055508173ffffffffffffffffffffffffffffffffffffffff166108fc829081150290604051600060405180830381858888f19350505050158015610557573d6000803e3d6000fd5b508173ffffffffffffffffffffffffffffffffffffffff167f7084f5476618d8e60b11ef0d7d3f06914655adb8793e28ff7f018d4c76d505d5826040518082815260200191505060405180910390a25050565b60008060009054906101000a900473ffffffffffffffffffffffffffffffffffffffff16905090565b6000600160008373ffffffffffffffffffffffffffffffffffffffff1673ffffffffffffffffffffffffffffffffffffffff168152602001908152602001600020549050919050565b6000809054906101000a900473ffffffffffffffffffffffffffffffffffffffff1673ffffffffffffffffffffffffffffffffffffffff163373ffffffffffffffffffffffffffffffffffffffff16146106c1576040517f08c379a000000000000000000000000000000000000000000000000000000000815260040180806020018281038252602c815260200180610860602c913960400191505060405180910390fd5b600034905061071881600160008573ffffffffffffffffffffffffffffffffffffffff1673ffffffffffffffffffffffffffffffffffffffff168152602001908152602001600020546107ad90919063ffffffff16565b600160008473ffffffffffffffffffffffffffffffffffffffff1673ffffffffffffffffffffffffffffffffffffffff168152602001908152602001600020819055508173ffffffffffffffffffffffffffffffffffffffff167f2da466a7b24304f47e87fa2e1e5a81b9831ce54fec19055ce277ca2f39ba42c4826040518082815260200191505060405180910390a25050565b60008082840190508381101561082b576040517f08c379a000000000000000000000000000000000000000000000000000000000815260040180806020018281038252601b8152602001807f536166654d6174683a206164646974696f6e206f766572666c6f77000000000081525060200191505060405180910390fd5b809150509291505056fe5365636f6e646172793a206e6577207072696d61727920697320746865207a65726f20616464726573735365636f6e646172793a2063616c6c6572206973206e6f7420746865207072696d617279206163636f756e74a165627a7a723058204b3a83c15e5d117bca8fc0bf285a82f4b4afdae2bdaab524be8f7daab1a047080029",
  "source": "pragma solidity ^0.5.0;\n\n\nimport \"@openzeppelin/contracts/payment/PullPayment.sol\";\n\n\n/*\n  NOTES\n  =====\n  - The x1 y1 x2 y2 x y order is from the SVG standard.\n  - We use PullPayment because this works with real Ether.\n */\n\n\ncontract PayPreviousPath is PullPayment {\n    // Use the low 4 bits for command, the high 4 bits for flags.\n    // (We don't fill this space, but it's the schema).\n    uint8 constant public T_MOVETO = 1;\n    uint8 constant public T_LINETO = 2;\n    uint8 constant public T_CURVETO_BEZIER = 3;\n    // Not used but here in case\n    uint8 constant public T_CURVETO_QUADRATIC = 4;\n    // Added to another command, use the relative rather than absolute kind.\n    // We don't use this but it's here as future proofing.\n    uint8 constant public T_RELATIVE = 1 << 6;\n    // On its own, closepath.\n    // Added to another command, executes after the command it's added to.\n    uint8 constant public T_CLOSEPATH = 1 << 7;\n\n    event PathChanged(\n        address indexed by,\n        uint8[32] command,\n        int8[32] x1,\n        int8[32] y1,\n        int8[32] x2,\n        int8[32] y2,\n        int8[32] x,\n        int8[32] y\n    );\n\n    // In this house we use Bezier Curves.\n    // This representation is unstructured and inflexible but clear and easy to\n    // process. We don't want to allow invalid d=\"\" specs or have to parse them\n    // to validate them, so a string or bytes wouldn't work.\n    // Just using Quadratics would take less room, the svg path T command would\n    // take even less, but these remove control/fidelity/possibility.\n    // The pointCommand is almost redundant, we could have a single path\n    // consisting of Cs with an implicit M 0 0, but we want to be able to\n    // represent more complex paths.\n    uint8[32] public pointCommand;\n    int8[32] public  pointX1;\n    int8[32] public  pointY1;\n    int8[32] public  pointX2;\n    int8[32] public  pointY2;\n    int8[32] public  pointX;\n    int8[32] public  pointY;\n\n    address public previousPayer;\n    \n    constructor() public {\n        previousPayer = msg.sender;\n        //FIXME: TEST PATH\n        pointCommand[0] = 1;\n        pointX[0] = 10;\n        pointY[0] = 20;\n        pointCommand[1] = 2;\n        pointX[1] = 80;\n        pointY[1] = 120;\n        pointCommand[2] = 3;\n        pointX1[2] = 12;\n        pointY1[2] = 30;\n        pointX2[2] = 40;\n        pointY2[2] = 60;\n        pointX[2] = 120;\n        pointY[2] = 20;\n        pointCommand[3] = 2 + T_CLOSEPATH;\n        pointX[3] = 33;\n        pointY[3] = 14;\n\n    }\n\n    function calculateFee (uint256 _gasPrice) public pure returns (uint256) {\n        // This locks in the base transaction price but it's a schellingpoint\n        return 2300 * _gasPrice;\n    }\n\n    function hasCorrectFee () internal returns (bool) {\n\n        return msg.value == calculateFee(tx.gasprice);\n    }\n\n    //NOTE: We don't catch the case of setting the path to itself.\n\n    function setPath(\n        uint8[32] memory _command,\n        int8[32] memory _x1,\n        int8[32] memory _y1,\n        int8[32] memory _x2,\n        int8[32] memory _y2,\n        int8[32] memory _x,\n        int8[32] memory _y\n    )\n        public\n        payable\n    {\n        // Pay the fee to the previous path setter\n        uint256 fee = calculateFee(tx.gasprice);\n        require(msg.value == fee, \"Incorrect fee\");\n        _asyncTransfer(previousPayer, fee);\n        previousPayer = msg.sender;\n        // Set the path\n        pointCommand = _command;\n        pointX1 = _x1;\n        pointY1 = _y1;\n        pointX2 = _x2;\n        pointY2 = _y2;\n        pointX = _x;\n        pointY = _y;\n        emit PathChanged(\n            msg.sender,\n            pointCommand,\n            pointX1,\n            pointY1,\n            pointX2,\n            pointY2,\n            pointX,\n            pointY\n        );\n    }\n\n    function getPath() external view\n    returns (\n        uint8[32] memory command,\n        int8[32] memory x1,\n        int8[32] memory y1,\n        int8[32] memory x2,\n        int8[32] memory y2,\n        int8[32] memory x,\n        int8[32] memory y\n    ) {\n        command = pointCommand;\n        x1 = pointX1;\n        y1 = pointY1;\n        x2 = pointX2;\n        y2 = pointY2;\n        x = pointX;\n        y = pointY;\n    }\n}\n",
  "sourcePath": "/home/rob/projects/artworld-ethereum/dapps/pay-previous-path/contracts/PayPreviousPath.sol",
  "compiler": {
    "name": "solc",
    "version": "0.5.8+commit.23d335f2.Emscripten.clang"
  },
  "schemaVersion": "3.0.11",
  "updatedAt": "2019-08-11T00:05:16.139Z",
  "devdoc": {
    "methods": {
      "payments(address)": {
        "details": "Returns the credit owed to an address.",
        "params": {
          "dest": "The creditor's address."
        }
      },
      "withdrawPayments(address)": {
        "details": "Withdraw accumulated balance.",
        "params": {
          "payee": "Whose balance will be withdrawn."
        }
      }
    }
  },
  "userdoc": {
    "methods": {}
  }
}