{
  "contractName": "PayPreviousPath",
  "abi": [
    {
      "constant": true,
      "inputs": [
        {
          "name": "",
          "type": "uint256"
        }
      ],
      "name": "pointX",
      "outputs": [
        {
          "name": "",
          "type": "int8"
        }
      ],
      "payable": false,
      "stateMutability": "view",
      "type": "function"
    },
    {
      "constant": true,
      "inputs": [],
      "name": "previousPayerAmount",
      "outputs": [
        {
          "name": "",
          "type": "uint256"
        }
      ],
      "payable": false,
      "stateMutability": "view",
      "type": "function"
    },
    {
      "constant": false,
      "inputs": [],
      "name": "withdrawPreviousPayments",
      "outputs": [],
      "payable": false,
      "stateMutability": "nonpayable",
      "type": "function"
    },
    {
      "constant": false,
      "inputs": [
        {
          "name": "x",
          "type": "int8[32]"
        },
        {
          "name": "y",
          "type": "int8[32]"
        },
        {
          "name": "t",
          "type": "uint8[32]"
        }
      ],
      "name": "setPath",
      "outputs": [],
      "payable": true,
      "stateMutability": "payable",
      "type": "function"
    },
    {
      "constant": true,
      "inputs": [
        {
          "name": "",
          "type": "uint256"
        }
      ],
      "name": "pointY",
      "outputs": [
        {
          "name": "",
          "type": "int8"
        }
      ],
      "payable": false,
      "stateMutability": "view",
      "type": "function"
    },
    {
      "constant": true,
      "inputs": [],
      "name": "getCurrentPath",
      "outputs": [
        {
          "name": "x",
          "type": "int8[32]"
        },
        {
          "name": "y",
          "type": "int8[32]"
        },
        {
          "name": "t",
          "type": "uint8[32]"
        }
      ],
      "payable": false,
      "stateMutability": "view",
      "type": "function"
    },
    {
      "constant": true,
      "inputs": [],
      "name": "previousPayer",
      "outputs": [
        {
          "name": "",
          "type": "address"
        }
      ],
      "payable": false,
      "stateMutability": "view",
      "type": "function"
    },
    {
      "constant": true,
      "inputs": [
        {
          "name": "",
          "type": "uint256"
        }
      ],
      "name": "pointType",
      "outputs": [
        {
          "name": "",
          "type": "uint8"
        }
      ],
      "payable": false,
      "stateMutability": "view",
      "type": "function"
    },
    {
      "constant": true,
      "inputs": [
        {
          "name": "",
          "type": "address"
        }
      ],
      "name": "pendingWithdrawals",
      "outputs": [
        {
          "name": "",
          "type": "uint256"
        }
      ],
      "payable": false,
      "stateMutability": "view",
      "type": "function"
    },
    {
      "inputs": [],
      "payable": false,
      "stateMutability": "nonpayable",
      "type": "constructor"
    },
    {
      "anonymous": false,
      "inputs": [
        {
          "indexed": false,
          "name": "x",
          "type": "int8[32]"
        },
        {
          "indexed": false,
          "name": "y",
          "type": "int8[32]"
        },
        {
          "indexed": false,
          "name": "t",
          "type": "uint8[32]"
        }
      ],
      "name": "Path",
      "type": "event"
    }
  ],
  "bytecode": "0x6060604052341561000f57600080fd5b33600360006101000a81548173ffffffffffffffffffffffffffffffffffffffff021916908373ffffffffffffffffffffffffffffffffffffffff16021790555066038d7ea4c6800060048190555060045460056000600360009054906101000a900473ffffffffffffffffffffffffffffffffffffffff1673ffffffffffffffffffffffffffffffffffffffff1673ffffffffffffffffffffffffffffffffffffffff16815260200190815260200160002081905550610a8e806100d56000396000f300606060405260043610610099576000357c0100000000000000000000000000000000000000000000000000000000900463ffffffff16806322b938351461009e5780634119e526146100db57806348bb585e146101045780635032156d146101195780635be9d1d8146101ac57806396e8cad3146101e9578063d36ad1ad14610295578063dbabe472146102ea578063f3f4370314610327575b600080fd5b34156100a957600080fd5b6100bf6004808035906020019091905050610374565b604051808260000b60000b815260200191505060405180910390f35b34156100e657600080fd5b6100ee61039d565b6040518082815260200191505060405180910390f35b341561010f57600080fd5b6101176103a3565b005b6101aa6004808061040001906020806020026040519081016040528092919082602080028082843782019150505050509190806104000190602080602002604051908101604052809291908260208002808284378201915050505050919080610400019060208060200260405190810160405280929190826020800280828437820191505050505091905050610481565b005b34156101b757600080fd5b6101cd6004808035906020019091905050610695565b604051808260000b60000b815260200191505060405180910390f35b34156101f457600080fd5b6101fc6106be565b60405180846020800280838360005b8381101561022657808201518184015260208101905061020b565b50505050905001836020800280838360005b83811015610253578082015181840152602081019050610238565b50505050905001826020800280838360005b83811015610280578082015181840152602081019050610265565b50505050905001935050505060405180910390f35b34156102a057600080fd5b6102a861080d565b604051808273ffffffffffffffffffffffffffffffffffffffff1673ffffffffffffffffffffffffffffffffffffffff16815260200191505060405180910390f35b34156102f557600080fd5b61030b6004808035906020019091905050610833565b604051808260ff1660ff16815260200191505060405180910390f35b341561033257600080fd5b61035e600480803573ffffffffffffffffffffffffffffffffffffffff1690602001909190505061085c565b6040518082815260200191505060405180910390f35b60008160208110151561038357fe5b60209182820401919006915054906101000a900460000b81565b60045481565b6000600560003373ffffffffffffffffffffffffffffffffffffffff1673ffffffffffffffffffffffffffffffffffffffff168152602001908152602001600020549050600081111561047e5780600560003373ffffffffffffffffffffffffffffffffffffffff1673ffffffffffffffffffffffffffffffffffffffff168152602001908152602001600020600082825403925050819055503373ffffffffffffffffffffffffffffffffffffffff166108fc829081150290604051600060405180830381858888f19350505050151561047d57600080fd5b5b50565b60045460056000600360009054906101000a900473ffffffffffffffffffffffffffffffffffffffff1673ffffffffffffffffffffffffffffffffffffffff1673ffffffffffffffffffffffffffffffffffffffff1681526020019081526020016000206000828254019250508190555033600360006101000a81548173ffffffffffffffffffffffffffffffffffffffff021916908373ffffffffffffffffffffffffffffffffffffffff160217905550600454340360048190555082600090602061054f929190610874565b50816001906020610561929190610874565b50806002906020610573929190610911565b507f345a76f73e36f6a825dbc2680e97ce4b53395636c8373b3adb975476e21ceb7c6000600160026040518084602080156105e9576020028201916000905b82829054906101000a900460000b60000b815260200190600101906020826000010492830192600103820291508084116105b25790505b50508360208015610635576020028201916000905b82829054906101000a900460000b60000b815260200190600101906020826000010492830192600103820291508084116105fe5790505b50508260208015610681576020028201916000905b82829054906101000a900460ff1660ff168152602001906001019060208260000104928301926001038202915080841161064a5790505b5050935050505060405180910390a1505050565b6001816020811015156106a457fe5b60209182820401919006915054906101000a900460000b81565b6106c66109ab565b6106ce6109ab565b6106d66109d6565b6000602080602002604051908101604052809291908260208015610735576020028201916000905b82829054906101000a900460000b60000b815260200190600101906020826000010492830192600103820291508084116106fe5790505b50505050509250600160208060200260405190810160405280929190826020801561079b576020028201916000905b82829054906101000a900460000b60000b815260200190600101906020826000010492830192600103820291508084116107645790505b505050505091506002602080602002604051908101604052809291908260208015610801576020028201916000905b82829054906101000a900460ff1660ff16815260200190600101906020826000010492830192600103820291508084116107ca5790505b50505050509050909192565b600360009054906101000a900473ffffffffffffffffffffffffffffffffffffffff1681565b60028160208110151561084257fe5b60209182820401919006915054906101000a900460ff1681565b60056020528060005260406000206000915090505481565b826020601f016020900481019282156109005791602002820160005b838211156108d157835183826101000a81548160ff021916908360000b60ff1602179055509260200192600101602081600001049283019260010302610890565b80156108fe5782816101000a81549060ff02191690556001016020816000010492830192600103026108d1565b505b50905061090d9190610a02565b5090565b826020601f0160209004810192821561099a5791602002820160005b8382111561096b57835183826101000a81548160ff021916908360ff160217905550926020019260010160208160000104928301926001030261092d565b80156109985782816101000a81549060ff021916905560010160208160000104928301926001030261096b565b505b5090506109a79190610a32565b5090565b610400604051908101604052806020905b6000800b8152602001906001900390816109bc5790505090565b610400604051908101604052806020905b600060ff168152602001906001900390816109e75790505090565b610a2f91905b80821115610a2b57600081816101000a81549060ff021916905550600101610a08565b5090565b90565b610a5f91905b80821115610a5b57600081816101000a81549060ff021916905550600101610a38565b5090565b905600a165627a7a72305820a5cb86ce7f93c37ff3c306dac6f75e55b735b621b45a488b970a1d532cdf2ad10029",
  "source": "pragma solidity ^0.4.4;\n\ncontract PayPreviousPath {\n\n    int8[32] public pointX;\n    int8[32] public pointY;\n    // This would be an enum if compiler & ABI support made it easier\n    uint8[32] public pointType;\n\n    address public previousPayer;\n    uint256 public previousPayerAmount;\n\n    mapping (address => uint256) public pendingWithdrawals;\n\n    event Path(int8[32] x, int8[32] y, uint8[32] t);\n\n    function PayPreviousPath() public {\n        previousPayer = msg.sender;\n        // Start with a payment to the contract's creator\n        previousPayerAmount = 0.001 ether;\n        pendingWithdrawals[previousPayer] = previousPayerAmount;\n    }\n\n    function setPath(int8[32] x, int8[32] y, uint8[32] t) public payable {\n        //require(msg.value > previousPayerAmount);\n        //NOTE: we explicitly do not disallow the same sender setting the path\n        //      multiple times (they may wish to change it), but we do not have\n        //      any special logic to handle this. The sender must have the\n        //      total amount for both payments available.\n        pendingWithdrawals[previousPayer] += previousPayerAmount;\n        previousPayer = msg.sender;\n        previousPayerAmount = (msg.value - previousPayerAmount);\n        pointX = x;\n        pointY = y;\n        pointType = t;\n        Path(pointX, pointY, pointType);\n    }\n\n    function getCurrentPath() public view\n        returns (int8[32] x, int8[32] y, uint8[32] t) {\n        x = pointX;\n        y = pointY;\n        t = pointType;\n    }\n\n    function withdrawPreviousPayments() public {\n        uint256 amount = pendingWithdrawals[msg.sender];\n        if(amount > 0) {\n            pendingWithdrawals[msg.sender] -= amount;\n            msg.sender.transfer(amount);\n        }\n    }\n\n}\n",
  "sourcePath": "/home/rob/projects/artworld-ethereum/dapps/pay-previous-path/contracts/PayPreviousPath.sol",
  "compiler": {
    "name": "solc",
    "version": "0.4.18+commit.9cf6e910.Emscripten.clang"
  },
  "schemaVersion": "1.0.1",
  "updatedAt": "2018-03-25T05:37:02.528Z"
}