{
  "contractName": "SchellingFlags",
  "abi": [
    {
      "constant": true,
      "inputs": [
        {
          "name": "",
          "type": "uint256"
        }
      ],
      "name": "mostPopularFlags",
      "outputs": [
        {
          "name": "",
          "type": "uint256"
        }
      ],
      "payable": false,
      "stateMutability": "view",
      "type": "function"
    },
    {
      "constant": true,
      "inputs": [
        {
          "name": "",
          "type": "uint256"
        }
      ],
      "name": "flagIds",
      "outputs": [
        {
          "name": "",
          "type": "uint256"
        }
      ],
      "payable": false,
      "stateMutability": "view",
      "type": "function"
    },
    {
      "constant": true,
      "inputs": [],
      "name": "MAX_COLOR_VALUE",
      "outputs": [
        {
          "name": "",
          "type": "uint8"
        }
      ],
      "payable": false,
      "stateMutability": "view",
      "type": "function"
    },
    {
      "constant": true,
      "inputs": [],
      "name": "nextId",
      "outputs": [
        {
          "name": "",
          "type": "uint256"
        }
      ],
      "payable": false,
      "stateMutability": "view",
      "type": "function"
    },
    {
      "constant": false,
      "inputs": [],
      "name": "renounceOwnership",
      "outputs": [],
      "payable": false,
      "stateMutability": "nonpayable",
      "type": "function"
    },
    {
      "constant": true,
      "inputs": [],
      "name": "MAX_COLORS",
      "outputs": [
        {
          "name": "",
          "type": "uint8"
        }
      ],
      "payable": false,
      "stateMutability": "view",
      "type": "function"
    },
    {
      "constant": true,
      "inputs": [
        {
          "name": "",
          "type": "uint256"
        }
      ],
      "name": "flags",
      "outputs": [
        {
          "name": "layout",
          "type": "uint8"
        },
        {
          "name": "overlay",
          "type": "uint8"
        },
        {
          "name": "pledges",
          "type": "uint256"
        }
      ],
      "payable": false,
      "stateMutability": "view",
      "type": "function"
    },
    {
      "constant": true,
      "inputs": [],
      "name": "owner",
      "outputs": [
        {
          "name": "",
          "type": "address"
        }
      ],
      "payable": false,
      "stateMutability": "view",
      "type": "function"
    },
    {
      "constant": true,
      "inputs": [],
      "name": "NUM_MOST_POPULAR",
      "outputs": [
        {
          "name": "",
          "type": "uint8"
        }
      ],
      "payable": false,
      "stateMutability": "view",
      "type": "function"
    },
    {
      "constant": true,
      "inputs": [],
      "name": "numOverlayDesigns",
      "outputs": [
        {
          "name": "",
          "type": "uint256"
        }
      ],
      "payable": false,
      "stateMutability": "view",
      "type": "function"
    },
    {
      "constant": true,
      "inputs": [],
      "name": "mostPopularLowest",
      "outputs": [
        {
          "name": "",
          "type": "uint256"
        }
      ],
      "payable": false,
      "stateMutability": "view",
      "type": "function"
    },
    {
      "constant": false,
      "inputs": [
        {
          "name": "_newOwner",
          "type": "address"
        }
      ],
      "name": "transferOwnership",
      "outputs": [],
      "payable": false,
      "stateMutability": "nonpayable",
      "type": "function"
    },
    {
      "constant": true,
      "inputs": [],
      "name": "numLayoutDesigns",
      "outputs": [
        {
          "name": "",
          "type": "uint256"
        }
      ],
      "payable": false,
      "stateMutability": "view",
      "type": "function"
    },
    {
      "anonymous": false,
      "inputs": [
        {
          "indexed": false,
          "name": "id",
          "type": "uint256"
        }
      ],
      "name": "FlagPledge",
      "type": "event"
    },
    {
      "anonymous": false,
      "inputs": [
        {
          "indexed": false,
          "name": "id",
          "type": "uint256"
        }
      ],
      "name": "MostPopularChanged",
      "type": "event"
    },
    {
      "anonymous": false,
      "inputs": [
        {
          "indexed": true,
          "name": "previousOwner",
          "type": "address"
        }
      ],
      "name": "OwnershipRenounced",
      "type": "event"
    },
    {
      "anonymous": false,
      "inputs": [
        {
          "indexed": true,
          "name": "previousOwner",
          "type": "address"
        },
        {
          "indexed": true,
          "name": "newOwner",
          "type": "address"
        }
      ],
      "name": "OwnershipTransferred",
      "type": "event"
    },
    {
      "constant": true,
      "inputs": [
        {
          "name": "flagId",
          "type": "uint256"
        }
      ],
      "name": "getFlag",
      "outputs": [
        {
          "name": "",
          "type": "uint8[7]"
        },
        {
          "name": "",
          "type": "uint8"
        },
        {
          "name": "",
          "type": "uint8"
        },
        {
          "name": "",
          "type": "uint256"
        }
      ],
      "payable": false,
      "stateMutability": "view",
      "type": "function"
    },
    {
      "constant": true,
      "inputs": [],
      "name": "getMostPopular",
      "outputs": [
        {
          "name": "",
          "type": "uint256[20]"
        }
      ],
      "payable": false,
      "stateMutability": "view",
      "type": "function"
    },
    {
      "constant": false,
      "inputs": [
        {
          "name": "newNum",
          "type": "uint256"
        }
      ],
      "name": "setNumLayoutDesigns",
      "outputs": [],
      "payable": false,
      "stateMutability": "nonpayable",
      "type": "function"
    },
    {
      "constant": false,
      "inputs": [
        {
          "name": "newNum",
          "type": "uint256"
        }
      ],
      "name": "setNumOverlayDesigns",
      "outputs": [],
      "payable": false,
      "stateMutability": "nonpayable",
      "type": "function"
    },
    {
      "constant": true,
      "inputs": [
        {
          "name": "layout",
          "type": "uint8"
        },
        {
          "name": "overlay",
          "type": "uint8"
        },
        {
          "name": "colors",
          "type": "uint8[7]"
        }
      ],
      "name": "hashFlagProperties",
      "outputs": [
        {
          "name": "",
          "type": "uint256"
        }
      ],
      "payable": false,
      "stateMutability": "pure",
      "type": "function"
    },
    {
      "constant": false,
      "inputs": [
        {
          "name": "layout",
          "type": "uint8"
        },
        {
          "name": "overlay",
          "type": "uint8"
        },
        {
          "name": "colors",
          "type": "uint8[7]"
        }
      ],
      "name": "pledgeToFlagByProperties",
      "outputs": [
        {
          "name": "",
          "type": "uint256"
        }
      ],
      "payable": false,
      "stateMutability": "nonpayable",
      "type": "function"
    },
    {
      "constant": false,
      "inputs": [
        {
          "name": "id",
          "type": "uint256"
        }
      ],
      "name": "pledgeToFlagById",
      "outputs": [],
      "payable": false,
      "stateMutability": "nonpayable",
      "type": "function"
    }
  ],
  "bytecode": "0x60806040526001600355336000806101000a81548173ffffffffffffffffffffffffffffffffffffffff021916908373ffffffffffffffffffffffffffffffffffffffff1602179055506112eb806100586000396000f300608060405260043610610112576000357c0100000000000000000000000000000000000000000000000000000000900463ffffffff168063161cb888146101175780633998404a14610158578063493149b61461019957806361b8ce8c146101ca578063650669cc146101f55780636db4e57d14610275578063715018a6146102a25780637eccd594146102b957806381274d3a146102ea5780638da5cb5b146103455780638f9a73981461039c57806395fdc999146103cd578063b7e7824514610457578063c53b8d30146104d7578063d01506b81461052a578063e7f1325014610555578063ec40ca9714610582578063f176c18f146105af578063f2fde38b146105da578063f3f9d87b1461061d575b600080fd5b34801561012357600080fd5b5061014260048036038101908080359060200190929190505050610648565b6040518082815260200191505060405180910390f35b34801561016457600080fd5b5061018360048036038101908080359060200190929190505050610662565b6040518082815260200191505060405180910390f35b3480156101a557600080fd5b506101ae61067a565b604051808260ff1660ff16815260200191505060405180910390f35b3480156101d657600080fd5b506101df61067f565b6040518082815260200191505060405180910390f35b34801561020157600080fd5b5061025f600480360381019080803560ff169060200190929190803560ff1690602001909291908060e00190600780602002604051908101604052809291908260076020028082843782019150505050509192919290505050610685565b6040518082815260200191505060405180910390f35b34801561028157600080fd5b506102a060048036038101908080359060200190929190505050610849565b005b3480156102ae57600080fd5b506102b76108d2565b005b3480156102c557600080fd5b506102ce6109d4565b604051808260ff1660ff16815260200191505060405180910390f35b3480156102f657600080fd5b50610315600480360381019080803590602001909291905050506109d9565b604051808460ff1660ff1681526020018360ff1660ff168152602001828152602001935050505060405180910390f35b34801561035157600080fd5b5061035a610a1d565b604051808273ffffffffffffffffffffffffffffffffffffffff1673ffffffffffffffffffffffffffffffffffffffff16815260200191505060405180910390f35b3480156103a857600080fd5b506103b1610a42565b604051808260ff1660ff16815260200191505060405180910390f35b3480156103d957600080fd5b506103f860048036038101908080359060200190929190505050610a47565b6040518085600760200280838360005b83811015610423578082015181840152602081019050610408565b505050509050018460ff1660ff1681526020018360ff1660ff16815260200182815260200194505050505060405180910390f35b34801561046357600080fd5b506104c1600480360381019080803560ff169060200190929190803560ff1690602001909291908060e00190600780602002604051908101604052809291908260076020028082843782019150505050509192919290505050610b5e565b6040518082815260200191505060405180910390f35b3480156104e357600080fd5b506104ec610c49565b6040518082601460200280838360005b838110156105175780820151818401526020810190506104fc565b5050505090500191505060405180910390f35b34801561053657600080fd5b5061053f610c94565b6040518082815260200191505060405180910390f35b34801561056157600080fd5b5061058060048036038101908080359060200190929190505050610c9a565b005b34801561058e57600080fd5b506105ad60048036038101908080359060200190929190505050610cff565b005b3480156105bb57600080fd5b506105c4610d64565b6040518082815260200191505060405180910390f35b3480156105e657600080fd5b5061061b600480360381019080803573ffffffffffffffffffffffffffffffffffffffff169060200190929190505050610d6a565b005b34801561062957600080fd5b50610632610dd1565b6040518082815260200191505060405180910390f35b60068160148110151561065757fe5b016000915090505481565b60056020528060005260406000206000915090505481565b601781565b60035481565b60008160008060019150600090505b600760ff168160ff1610156106dd57601760ff16838260ff166007811015156106b957fe5b602002015160ff1611156106d057600091506106dd565b8080600101915050610694565b600115158215151415156106f057600080fd5b6002878787604051602001808460ff1660ff167f01000000000000000000000000000000000000000000000000000000000000000281526001018360ff1660ff167f010000000000000000000000000000000000000000000000000000000000000002815260010182600760200280838360005b8381101561077f578082015181840152602081019050610764565b5050505090500193505050506040516020818303038152906040526040518082805190602001908083835b6020831015156107cf57805182526020820191506020810190506020830392506107aa565b6001836020036101000a0380198251168184511680821785525050505050509050019150506020604051808303816000865af1158015610813573d6000803e3d6000fd5b5050506040513d602081101561082857600080fd5b81019080805190602001909291905050506001900493505050509392505050565b8060008111151561085957600080fd5b6003548110151561086957600080fd5b600160046000848152602001908152602001600020600201600082825401925050819055507f110b5a130c649d737ff6445c3abe6465dc7b71fe11e6b47f0ed96a074e6d1d44826040518082815260200191505060405180910390a16108ce82610dd7565b5050565b6000809054906101000a900473ffffffffffffffffffffffffffffffffffffffff1673ffffffffffffffffffffffffffffffffffffffff163373ffffffffffffffffffffffffffffffffffffffff1614151561092d57600080fd5b6000809054906101000a900473ffffffffffffffffffffffffffffffffffffffff1673ffffffffffffffffffffffffffffffffffffffff167ff8df31144d9c2f0f6b59d69b8b98abd5459d07f2742c4df920b25aae33c6482060405160405180910390a260008060006101000a81548173ffffffffffffffffffffffffffffffffffffffff021916908373ffffffffffffffffffffffffffffffffffffffff160217905550565b600781565b60046020528060005260406000206000915090508060010160009054906101000a900460ff16908060010160019054906101000a900460ff16908060020154905083565b6000809054906101000a900473ffffffffffffffffffffffffffffffffffffffff1681565b601481565b610a4f6111ae565b600080600084600081111515610a6457600080fd5b60035481101515610a7457600080fd5b600460008781526020019081526020016000206000016004600088815260200190815260200160002060010160009054906101000a900460ff166004600089815260200190815260200160002060010160019054906101000a900460ff16600460008a81526020019081526020016000206002015483600780602002604051908101604052809291908260078015610b47576020028201916000905b82829054906101000a900460ff1660ff1681526020019060010190602082600001049283019260010382029150808411610b105790505b505050505093509450945094509450509193509193565b60008060008360008060019150600090505b600760ff168160ff161015610bb957601760ff16838260ff16600781101515610b9557fe5b602002015160ff161115610bac5760009150610bb9565b8080600101915050610b70565b60011515821515141515610bcc57600080fd5b886001548160ff16101515610be057600080fd5b886002548160ff16101515610bf457600080fd5b610bff8b8b8b610685565b9650600560008881526020019081526020016000205495506000861415610c2f57610c2c8b8b8b8a610fd4565b95505b610c3886610849565b859750505050505050509392505050565b610c516111d1565b6006601480602002604051908101604052809291908260148015610c8a576020028201915b815481526020019060010190808311610c76575b5050505050905090565b60025481565b6000809054906101000a900473ffffffffffffffffffffffffffffffffffffffff1673ffffffffffffffffffffffffffffffffffffffff163373ffffffffffffffffffffffffffffffffffffffff16141515610cf557600080fd5b8060018190555050565b6000809054906101000a900473ffffffffffffffffffffffffffffffffffffffff1673ffffffffffffffffffffffffffffffffffffffff163373ffffffffffffffffffffffffffffffffffffffff16141515610d5a57600080fd5b8060028190555050565b601a5481565b6000809054906101000a900473ffffffffffffffffffffffffffffffffffffffff1673ffffffffffffffffffffffffffffffffffffffff163373ffffffffffffffffffffffffffffffffffffffff16141515610dc557600080fd5b610dce816110b4565b50565b60015481565b60008060008060008060046000888152602001908152602001600020600201549550601a54861115610fcb57600093505b6014841015610e3f5786600685601481101515610e2157fe5b01541415610e325760019450610e3f565b8380600101945050610e08565b841515610eac57600092505b6014831015610eab57601a5460046000600686601481101515610e6a57fe5b01548152602001908152602001600020600201541415610e9e5786600684601481101515610e9457fe5b0181905550610eab565b8280600101935050610e4b565b5b6004600060066000601481101515610ec057fe5b01548152602001908152602001600020600201549150600190505b6014811015610f49578160046000600684601481101515610ef857fe5b01548152602001908152602001600020600201541015610f3c5760046000600683601481101515610f2557fe5b015481526020019081526020016000206002015491505b8080600101915050610edb565b81601a819055508415610f92577f655b9e657b82359d98d5956798ed68dd63480699ef4c1e492d8120ae6e223f2c846040518082815260200191505060405180910390a1610fca565b7f655b9e657b82359d98d5956798ed68dd63480699ef4c1e492d8120ae6e223f2c836040518082815260200191505060405180910390a15b5b50505050505050565b600080600354905060016003600082825401925050819055506080604051908101604052808581526020018760ff1681526020018660ff1681526020016000815250600460008381526020019081526020016000206000820151816000019060076110409291906111f5565b5060208201518160010160006101000a81548160ff021916908360ff16021790555060408201518160010160016101000a81548160ff021916908360ff1602179055506060820151816002015590505080600560008581526020019081526020016000208190555080915050949350505050565b600073ffffffffffffffffffffffffffffffffffffffff168173ffffffffffffffffffffffffffffffffffffffff16141515156110f057600080fd5b8073ffffffffffffffffffffffffffffffffffffffff166000809054906101000a900473ffffffffffffffffffffffffffffffffffffffff1673ffffffffffffffffffffffffffffffffffffffff167f8be0079c531659141344cd1fd0a4f28419497f9722a3daafe3b4186f6b6457e060405160405180910390a3806000806101000a81548173ffffffffffffffffffffffffffffffffffffffff021916908373ffffffffffffffffffffffffffffffffffffffff16021790555050565b60e060405190810160405280600790602082028038833980820191505090505090565b61028060405190810160405280601490602082028038833980820191505090505090565b826007601f0160209004810192821561127e5791602002820160005b8382111561124f57835183826101000a81548160ff021916908360ff1602179055509260200192600101602081600001049283019260010302611211565b801561127c5782816101000a81549060ff021916905560010160208160000104928301926001030261124f565b505b50905061128b919061128f565b5090565b6112bc91905b808211156112b857600081816101000a81549060ff021916905550600101611295565b5090565b905600a165627a7a723058205362efb08fe7d78415c4ae78e91c90c8e054916c433ccf4893db47032043bcd10029",
  "source": "pragma solidity ^0.4.21;\n\n\nimport 'openzeppelin-solidity/contracts/ownership/Ownable.sol';\n\n\ncontract SchellingFlags is Ownable {\n    // A flag may use a maximum of seven colours\n    uint8 constant public MAX_COLORS = 7;\n    // We have 24 color values\n    uint8 constant public MAX_COLOR_VALUE = 23;\n    // We keep an array of the 20 most popular flags\n    // If we allowed removing pledges we'd need a linked list\n    uint8 constant public NUM_MOST_POPULAR = 20;\n\n    struct Flag {\n        uint8[MAX_COLORS] colors;\n        uint8 layout;\n        uint8 overlay;\n        uint256 pledges;\n    }\n\n    // Make this changeable just in case\n    uint256 public numLayoutDesigns;\n\n    // Make this changeable just in case\n    uint256 public numOverlayDesigns;\n\n    // Someone pledged to a flag\n    event FlagPledge(uint256 id);\n    // The pledge updated the list of most popular flags\n    event MostPopularChanged(uint256 id);\n\n    // 0 is the invalid flag index, so start with 1\n    uint256 public nextId = 1;\n\n    // Flag id number to Flag struct\n    mapping(uint256 => Flag) public flags;\n    // Flag flag property hash to flag id number\n    mapping(uint256 => uint256) public flagIds;\n    // Array of flag numbers for Flag structs with the highest pledge counts\n    uint256[NUM_MOST_POPULAR] public mostPopularFlags;\n\n    // The lowest pledge count that is in the list of most popular flags\n    // (more than one item may have this number of votes)\n    uint public mostPopularLowest;\n\n    modifier validLayout (uint8 layout) {\n        require (layout < numLayoutDesigns);\n        _;\n    }\n\n    modifier validOverlay (uint8 overlay) {\n        require (overlay < numOverlayDesigns);\n        _;\n    }\n    \n    modifier validColors (uint8[MAX_COLORS] colors) {\n        bool ok = true;\n        for (uint8 i = 0; i < MAX_COLORS; i++) {\n            if (colors[i] > MAX_COLOR_VALUE) {\n                ok = false;\n                break;\n            }\n        }\n        require(ok == true);\n        _;\n    }\n\n    modifier validFlagId (uint256 id) {\n        require(id > 0);\n        require(id < nextId);\n        _;\n    }\n\n    // Struct accessors don't return array members, so get them this way\n\n    function getFlag (uint256 flagId)\n        public view\n        validFlagId(flagId)\n        returns (uint8[MAX_COLORS], uint8, uint8, uint256)\n    {\n        return (flags[flagId].colors, flags[flagId].layout,\n                flags[flagId].overlay, flags[flagId].pledges);\n    }\n\n    function getMostPopular () public view returns (uint256[NUM_MOST_POPULAR]) {\n        return mostPopularFlags;\n    }\n\n    function setNumLayoutDesigns (uint256 newNum) public onlyOwner {\n        numLayoutDesigns = newNum;\n    }\n\n    function setNumOverlayDesigns (uint256 newNum) public onlyOwner {\n        numOverlayDesigns = newNum;\n    }\n\n    function hashFlagProperties (uint8 layout, uint8 overlay,\n                                 uint8[MAX_COLORS] colors)\n        public pure\n        validColors(colors)\n        returns (uint256)\n    {\n        return uint256(sha256(abi.encodePacked(layout, overlay, colors)));\n    }\n\n    function createFlag(uint8 layout, uint8 overlay, uint8[MAX_COLORS] colors,\n                        uint256 hash)\n        internal\n        returns (uint256)\n    {\n        uint256 id = nextId;\n        nextId += 1;\n        flags[id] = Flag(colors, layout, overlay, 0);\n        flagIds[hash] = id;\n        // Number of pledges is intentionally zero at this point\n        return id;\n    }\n\n    // This lazily creates flags that do not already exist\n    // We could split out creation, identification and voting but this\n    // is comparatively robust and the failure mode (getting the colors\n    // slightly wrong and creating a duplicate flag) is even more likely if\n    // we do split out creation.\n\n    function pledgeToFlagByProperties (uint8 layout, uint8 overlay,\n                                       uint8[MAX_COLORS] colors)\n        public\n        validColors(colors)\n        validLayout(layout)\n        validOverlay(overlay)\n        returns (uint256)\n    {\n        uint256 hash = hashFlagProperties(layout, overlay, colors);\n        uint256 id = flagIds[hash];\n        if (id == 0) {\n            id = createFlag(layout, overlay, colors, hash);\n        }\n        pledgeToFlagById(id);\n        return id;\n    }\n\n    // If you're sure you know a flag's id, save some gas compared to\n    // pledgeToFlagByProperties\n\n    function pledgeToFlagById (uint256 id) public validFlagId(id) {\n        flags[id].pledges += 1;\n        emit FlagPledge(id);\n        updateMostPopular(id);\n    }\n    \n    // If the flag has enough pledges to get into the most popular list,\n    // insert it.\n    // Naive implementation but with some subtleties:\n    // - the list is not sorted in pledge count order (this turns out to be\n    //   useful for keeping the visual presentation order stable).\n    // - one or all of the flags may have mostPopularLowest pledges.\n    // Off-chain callers can sort the list based on pledges for each flag.\n\n    function updateMostPopular (uint256 flagId) internal {\n        uint256 pledgeCount = flags[flagId].pledges;\n        if (pledgeCount > mostPopularLowest) {\n            // Check to see if the Flag is already present\n            bool alreadyPresent;\n            for (uint i = 0; i < mostPopularFlags.length; i++) {\n                if (mostPopularFlags[i] == flagId) {\n                    alreadyPresent = true;\n                    break;\n                }\n            }\n            // If not already present, overwrite (one of) the lowest flags\n            if (! alreadyPresent) {\n                for (uint j = 0; j < mostPopularFlags.length; j++) {\n                    if (flags[mostPopularFlags[j]].pledges ==\n                        mostPopularLowest) {\n                        mostPopularFlags[j] = flagId;\n                        break;\n                    }\n                }\n            }\n            // Update the lowest pledge count\n            uint newLowest = flags[mostPopularFlags[0]].pledges;\n            for (uint k = 1; k < mostPopularFlags.length; k++) {\n                if (flags[mostPopularFlags[k]].pledges < newLowest) {\n                    newLowest = flags[mostPopularFlags[k]].pledges;\n                }\n            }\n            mostPopularLowest = newLowest;\n            if (alreadyPresent) {\n                emit MostPopularChanged(i);\n            } else {\n                emit MostPopularChanged(j);\n            }\n        }\n    }\n}\n",
  "sourcePath": "/home/rob/projects/artworld-ethereum/dapps/schellingflags/contracts/SchellingFlags.sol",
  "compiler": {
    "name": "solc",
    "version": "0.4.24+commit.e67f0147.Emscripten.clang"
  },
  "schemaVersion": "2.0.1",
  "updatedAt": "2018-07-23T05:55:36.003Z"
}