{
  "contractName": "ProofOfWorkBitmap",
  "abi": [
    {
      "constant": true,
      "inputs": [],
      "name": "hash",
      "outputs": [
        {
          "name": "",
          "type": "bytes32"
        }
      ],
      "payable": false,
      "stateMutability": "view",
      "type": "function"
    },
    {
      "constant": true,
      "inputs": [],
      "name": "height",
      "outputs": [
        {
          "name": "",
          "type": "uint256"
        }
      ],
      "payable": false,
      "stateMutability": "view",
      "type": "function"
    },
    {
      "constant": true,
      "inputs": [],
      "name": "bitmap",
      "outputs": [
        {
          "name": "",
          "type": "bytes32"
        }
      ],
      "payable": false,
      "stateMutability": "view",
      "type": "function"
    },
    {
      "constant": true,
      "inputs": [],
      "name": "nonce",
      "outputs": [
        {
          "name": "",
          "type": "uint256"
        }
      ],
      "payable": false,
      "stateMutability": "view",
      "type": "function"
    },
    {
      "inputs": [],
      "payable": false,
      "stateMutability": "nonpayable",
      "type": "constructor"
    },
    {
      "anonymous": false,
      "inputs": [
        {
          "indexed": false,
          "name": "by",
          "type": "address"
        },
        {
          "indexed": false,
          "name": "bitmap",
          "type": "bytes32"
        },
        {
          "indexed": false,
          "name": "nonce",
          "type": "uint256"
        },
        {
          "indexed": false,
          "name": "hash",
          "type": "bytes32"
        }
      ],
      "name": "BitmapChanged",
      "type": "event"
    },
    {
      "constant": true,
      "inputs": [],
      "name": "difficulty",
      "outputs": [
        {
          "name": "level",
          "type": "uint8"
        }
      ],
      "payable": false,
      "stateMutability": "view",
      "type": "function"
    },
    {
      "constant": true,
      "inputs": [
        {
          "name": "newBitmap",
          "type": "bytes32"
        },
        {
          "name": "newNonce",
          "type": "uint256"
        },
        {
          "name": "newHash",
          "type": "bytes32"
        }
      ],
      "name": "validatePow",
      "outputs": [
        {
          "name": "valid",
          "type": "bool"
        }
      ],
      "payable": false,
      "stateMutability": "view",
      "type": "function"
    },
    {
      "constant": false,
      "inputs": [
        {
          "name": "newBitmap",
          "type": "bytes32"
        },
        {
          "name": "newNonce",
          "type": "uint256"
        },
        {
          "name": "newHash",
          "type": "bytes32"
        }
      ],
      "name": "setBitmap",
      "outputs": [],
      "payable": false,
      "stateMutability": "nonpayable",
      "type": "function"
    }
  ],
  "bytecode": "0x608060405234801561001057600080fd5b507f736f6d65737472696e670000000000000000000000000000000000000000000060008190555061039a806100476000396000f3fe608060405234801561001057600080fd5b506004361061007d5760003560e01c80631b5d23521161005b5780631b5d2352146100e25780633d44a9b814610100578063645c2d721461015a578063affed0e01461019c5761007d565b806309bd5a60146100825780630ef26743146100a057806319cae462146100be575b600080fd5b61008a6101ba565b6040518082815260200191505060405180910390f35b6100a86101c0565b6040518082815260200191505060405180910390f35b6100c66101c6565b604051808260ff1660ff16815260200191505060405180910390f35b6100ea6101e9565b6040518082815260200191505060405180910390f35b6101406004803603606081101561011657600080fd5b810190808035906020019092919080359060200190929190803590602001909291905050506101ef565b604051808215151515815260200191505060405180910390f35b61019a6004803603606081101561017057600080fd5b810190808035906020019092919080359060200190929190803590602001909291905050506102b1565b005b6101a461034f565b6040518082815260200191505060405180910390f35b60025481565b60035481565b60006101e46001600c6003544303816101db57fe5b04600403610355565b905090565b60005481565b6000806002548585604051602001808481526020018381526020018281526020019350505050604051602081830303815290604052805190602001209050828114915081156102a9576000601f90505b6102476101c6565b601f0360ff168111156102a757600060f81b82826020811061026557fe5b1a60f81b7effffffffffffffffffffffffffffffffffffffffffffffffffffffffffffff19161461029957600092506102a7565b80806001900391505061023f565b505b509392505050565b6102bc8383836101ef565b61032e576040517f08c379a00000000000000000000000000000000000000000000000000000000081526004018080602001828103825260158152602001807f696e76616c69642070726f6f662d6f662d776f726b000000000000000000000081525060200191505060405180910390fd5b82600081905550816001819055508060028190555043600381905550505050565b60015481565b60008183116103645781610366565b825b90509291505056fea165627a7a72305820c9e891e18d81fb332641c03528b93b33c6fd253ef61088fe09c05d82d1b016e50029",
  "source": "pragma solidity ^0.5.8;\n\n//FIXME: make transferrible & drainable\n\ncontract ProofOfWorkBitmap {\n\n    bytes32 public bitmap;\n    uint256 public nonce;\n    bytes32 public hash;\n    uint256 public height;\n\n    event BitmapChanged(\n        address by,\n        bytes32 bitmap,\n        uint256 nonce,\n        bytes32 hash\n    );\n\n    constructor() public {\n        bitmap = \"somestring\";\n    }\n\n    function max(uint a, uint b) private pure returns (uint) {\n        return a > b ? a : b;\n    }\n\n    // The number of *bytes* at the end of the hash that must be zero\n    // This must always be at least 1, and has a maximum of 4 when the bitmap\n    // is first set.\n    // It reduces slowly over the next many blocks.\n    function difficulty() public view returns (uint8 level) {\n        level = uint8(max(1, 4 - ((block.number - height) / 12)));\n    }\n\n    function validatePow(\n        bytes32 newBitmap,\n        uint256 newNonce,\n        bytes32 newHash\n    )\n        public view\n        returns (bool valid)\n    {\n        // Is the hash correct?\n        bytes32 bitmapNonceHash = keccak256(abi.encode(\n           hash,\n           newBitmap,\n           newNonce\n        ));\n        valid = (bitmapNonceHash == newHash);\n        // Does the hash have the correct number of trailing zero bytes?\n        if (valid) {\n            for (uint256 i = 31; i > 31 - difficulty(); i--) {\n                if (bitmapNonceHash[i] != 0) {\n                    valid = false;\n                    break;\n                }\n            }\n        }\n    }\n\n    // Check that the provided proof of work / puzzle solution is valid.\n    // If so, set the bitmap.\n    function setBitmap (\n        bytes32 newBitmap,\n        uint256 newNonce,\n        bytes32 newHash\n    )\n        public\n    {\n        require(\n            validatePow(newBitmap, newNonce, newHash),\n            \"invalid proof-of-work\"\n        );\n        bitmap = newBitmap;\n        nonce = newNonce;\n        hash = newHash;\n        height = block.number;\n    }\n}\n",
  "sourcePath": "/home/rob/projects/artworld-ethereum/dapps/proof-of-work-bitmap/contracts/ProofOfWorkBitmap.sol",
  "compiler": {
    "name": "solc",
    "version": "0.5.8+commit.23d335f2.Emscripten.clang"
  },
  "schemaVersion": "3.0.11",
  "updatedAt": "2019-07-15T01:13:50.577Z",
  "devdoc": {
    "methods": {}
  },
  "userdoc": {
    "methods": {}
  }
}