{
  "contractName": "SecureLineProperties",
  "abi": [
    {
      "constant": true,
      "inputs": [],
      "name": "cap",
      "outputs": [
        {
          "name": "",
          "type": "uint8"
        }
      ],
      "payable": false,
      "stateMutability": "view",
      "type": "function"
    },
    {
      "constant": true,
      "inputs": [],
      "name": "dashes",
      "outputs": [
        {
          "name": "",
          "type": "bytes32"
        }
      ],
      "payable": false,
      "stateMutability": "view",
      "type": "function"
    },
    {
      "constant": true,
      "inputs": [],
      "name": "owner",
      "outputs": [
        {
          "name": "",
          "type": "address"
        }
      ],
      "payable": false,
      "stateMutability": "view",
      "type": "function"
    },
    {
      "constant": true,
      "inputs": [],
      "name": "width",
      "outputs": [
        {
          "name": "",
          "type": "uint256"
        }
      ],
      "payable": false,
      "stateMutability": "view",
      "type": "function"
    },
    {
      "inputs": [],
      "payable": false,
      "stateMutability": "nonpayable",
      "type": "constructor"
    },
    {
      "anonymous": false,
      "inputs": [
        {
          "indexed": false,
          "name": "setter",
          "type": "address"
        },
        {
          "indexed": false,
          "name": "width",
          "type": "uint256"
        },
        {
          "indexed": false,
          "name": "cap",
          "type": "uint8"
        },
        {
          "indexed": false,
          "name": "dashes",
          "type": "bytes32"
        }
      ],
      "name": "LineProperties",
      "type": "event"
    },
    {
      "constant": false,
      "inputs": [
        {
          "name": "newOwner",
          "type": "address"
        }
      ],
      "name": "setOwner",
      "outputs": [],
      "payable": false,
      "stateMutability": "nonpayable",
      "type": "function"
    },
    {
      "constant": false,
      "inputs": [
        {
          "name": "newWidth",
          "type": "uint256"
        },
        {
          "name": "newCap",
          "type": "uint8"
        },
        {
          "name": "newDashes",
          "type": "bytes32"
        }
      ],
      "name": "_setProperties",
      "outputs": [],
      "payable": false,
      "stateMutability": "nonpayable",
      "type": "function"
    },
    {
      "constant": false,
      "inputs": [
        {
          "name": "newWidth",
          "type": "uint256"
        },
        {
          "name": "newCap",
          "type": "uint8"
        },
        {
          "name": "newDashes",
          "type": "bytes32"
        }
      ],
      "name": "setProperties",
      "outputs": [],
      "payable": false,
      "stateMutability": "nonpayable",
      "type": "function"
    },
    {
      "constant": false,
      "inputs": [],
      "name": "getProperties",
      "outputs": [
        {
          "name": "",
          "type": "uint256"
        },
        {
          "name": "",
          "type": "uint8"
        },
        {
          "name": "",
          "type": "bytes32"
        }
      ],
      "payable": false,
      "stateMutability": "nonpayable",
      "type": "function"
    }
  ],
  "bytecode": "0x6060604052341561000f57600080fd5b336000806101000a81548173ffffffffffffffffffffffffffffffffffffffff021916908373ffffffffffffffffffffffffffffffffffffffff16021790555060186001819055506001600260006101000a81548160ff021916908360ff160217905550610f08600102600381600019169055506104ef806100926000396000f3006060604052361561008c576000357c0100000000000000000000000000000000000000000000000000000000900463ffffffff16806313af403514610091578063355274ea146100ca5780634f939bb3146100f9578063898cf4601461012a5780638da5cb5b146101665780639ededf77146101bb578063c238d20f146101e4578063ec0cfd0b14610220575b600080fd5b341561009c57600080fd5b6100c8600480803573ffffffffffffffffffffffffffffffffffffffff16906020019091905050610265565b005b34156100d557600080fd5b6100dd6102fe565b604051808260ff1660ff16815260200191505060405180910390f35b341561010457600080fd5b61010c610311565b60405180826000191660001916815260200191505060405180910390f35b341561013557600080fd5b610164600480803590602001909190803560ff1690602001909190803560001916906020019091905050610317565b005b341561017157600080fd5b6101796103a4565b604051808273ffffffffffffffffffffffffffffffffffffffff1673ffffffffffffffffffffffffffffffffffffffff16815260200191505060405180910390f35b34156101c657600080fd5b6101ce6103c9565b6040518082815260200191505060405180910390f35b34156101ef57600080fd5b61021e600480803590602001909190803560ff16906020019091908035600019169060200190919050506103cf565b005b341561022b57600080fd5b61023361049d565b604051808481526020018360ff1660ff1681526020018260001916600019168152602001935050505060405180910390f35b6000809054906101000a900473ffffffffffffffffffffffffffffffffffffffff1673ffffffffffffffffffffffffffffffffffffffff163373ffffffffffffffffffffffffffffffffffffffff1614156102fb57806000806101000a81548173ffffffffffffffffffffffffffffffffffffffff021916908373ffffffffffffffffffffffffffffffffffffffff1602179055505b50565b600260009054906101000a900460ff1681565b60035481565b6000809054906101000a900473ffffffffffffffffffffffffffffffffffffffff1673ffffffffffffffffffffffffffffffffffffffff163373ffffffffffffffffffffffffffffffffffffffff16141561039f5760008311801561037d575060488311155b801561038d575060028260ff1611155b1561039e5761039d8383836103cf565b5b5b505050565b6000809054906101000a900473ffffffffffffffffffffffffffffffffffffffff1681565b60015481565b8260018190555081600260006101000a81548160ff021916908360ff16021790555080600381600019169055507f7796f4c50c4853a63cb9fd4fca20b0844cdacb921670be611432e307f4a916ce33600154600260009054906101000a900460ff16600354604051808573ffffffffffffffffffffffffffffffffffffffff1673ffffffffffffffffffffffffffffffffffffffff1681526020018481526020018360ff1660ff168152602001826000191660001916815260200194505050505060405180910390a1505050565b6000806000600154600260009054906101000a900460ff166003549250925092509091925600a165627a7a723058205d06b5d789086b29377e3237e631a819e278ee23329a381d89f9a1cfdf0794350029",
  "source": "pragma solidity ^0.4.17;\n\ncontract SecureLineProperties {\n  address public owner;\n\n  uint256 public width;\n  uint8   public cap;\n  bytes32 public dashes;\n\n  event LineProperties(\n      address setter,\n      uint256 width,\n      uint8 cap,\n      bytes32 dashes\n  );\n\n  modifier onlyOwner () {\n    if (msg.sender == owner) _;\n  }\n\n  function SecureLineProperties () public {\n    owner = msg.sender;\n    width = 24;\n    cap = 1;\n    dashes = 0x0F08;\n  }\n\n  function setOwner (address newOwner) public onlyOwner {\n      owner = newOwner;\n  }\n\n  /*\n    function _setWidth (uint256 newWidth) {\n    if (newWidth > 0 && newWidth <= 72) {\n    width = newWidth;\n    }\n    }\n\n    function _setCap (uint8 newCap) {\n    if (newCap <= 2) {\n    cap = newCap;\n    }\n    }\n\n    function _setDashes (bytes32 newDashes) {\n    dashes = newDashes;\n    }\n  */\n  \n  function _setProperties (uint256 newWidth, uint8 newCap, bytes32 newDashes) {\n      width = newWidth;\n      cap = newCap;\n      dashes = newDashes;\n      LineProperties(msg.sender, width, cap, dashes);\n  }\n\n  function setProperties (\n      uint256 newWidth,\n      uint8 newCap,\n      bytes32 newDashes\n  )\n      public\n      onlyOwner\n  {\n      //_setWidth(newWidth);\n      //_setCap(newCap);\n      //_setDashed(newDashes);\n      if (\n          (newWidth > 0 && newWidth <= 72) &&\n          (newCap <= 2)\n          // Zero dashes == solid line, so don't check.\n      ) {\n          _setProperties(newWidth, newCap, newDashes);\n      }\n  }\n\n  function getProperties () public returns (uint256, uint8, bytes32) {\n      return (width, cap, dashes);\n  }\n}\n",
  "sourcePath": "/home/rob/projects/artworld-ethereum/dapps/hack-line-properties/contracts/SecureLineProperties.sol",
  "compiler": {
    "name": "solc",
    "version": "0.4.17+commit.bdeb9e52.Emscripten.clang"
  },
  "schemaVersion": "3.0.11",
  "updatedAt": "2019-07-27T05:21:43.719Z",
  "devdoc": {
    "methods": {}
  },
  "userdoc": {
    "methods": {}
  }
}