{
  "contractName": "SecureLineProperties",
  "abi": [
    {
      "constant": true,
      "inputs": [],
      "name": "cap",
      "outputs": [
        {
          "name": "",
          "type": "uint8"
        }
      ],
      "payable": false,
      "stateMutability": "view",
      "type": "function"
    },
    {
      "constant": true,
      "inputs": [],
      "name": "dashes",
      "outputs": [
        {
          "name": "",
          "type": "uint256"
        }
      ],
      "payable": false,
      "stateMutability": "view",
      "type": "function"
    },
    {
      "constant": true,
      "inputs": [],
      "name": "owner",
      "outputs": [
        {
          "name": "",
          "type": "address"
        }
      ],
      "payable": false,
      "stateMutability": "view",
      "type": "function"
    },
    {
      "constant": true,
      "inputs": [],
      "name": "width",
      "outputs": [
        {
          "name": "",
          "type": "uint256"
        }
      ],
      "payable": false,
      "stateMutability": "view",
      "type": "function"
    },
    {
      "inputs": [],
      "payable": false,
      "stateMutability": "nonpayable",
      "type": "constructor"
    },
    {
      "anonymous": false,
      "inputs": [
        {
          "indexed": false,
          "name": "setter",
          "type": "address"
        },
        {
          "indexed": false,
          "name": "width",
          "type": "uint256"
        },
        {
          "indexed": false,
          "name": "cap",
          "type": "uint8"
        },
        {
          "indexed": false,
          "name": "dashes",
          "type": "uint256"
        }
      ],
      "name": "LineProperties",
      "type": "event"
    },
    {
      "constant": false,
      "inputs": [
        {
          "name": "newOwner",
          "type": "address"
        }
      ],
      "name": "setOwner",
      "outputs": [],
      "payable": false,
      "stateMutability": "nonpayable",
      "type": "function"
    },
    {
      "constant": false,
      "inputs": [
        {
          "name": "newWidth",
          "type": "uint256"
        },
        {
          "name": "newCap",
          "type": "uint8"
        },
        {
          "name": "newDashes",
          "type": "uint256"
        }
      ],
      "name": "_setProperties",
      "outputs": [],
      "payable": false,
      "stateMutability": "nonpayable",
      "type": "function"
    },
    {
      "constant": false,
      "inputs": [
        {
          "name": "newWidth",
          "type": "uint256"
        },
        {
          "name": "newCap",
          "type": "uint8"
        },
        {
          "name": "newDashes",
          "type": "uint256"
        }
      ],
      "name": "setProperties",
      "outputs": [],
      "payable": false,
      "stateMutability": "nonpayable",
      "type": "function"
    },
    {
      "constant": false,
      "inputs": [],
      "name": "getProperties",
      "outputs": [
        {
          "name": "",
          "type": "uint256"
        },
        {
          "name": "",
          "type": "uint8"
        },
        {
          "name": "",
          "type": "uint256"
        }
      ],
      "payable": false,
      "stateMutability": "nonpayable",
      "type": "function"
    }
  ],
  "bytecode": "0x6060604052341561000f57600080fd5b336000806101000a81548173ffffffffffffffffffffffffffffffffffffffff021916908373ffffffffffffffffffffffffffffffffffffffff160217905550600c60018190555060028060006101000a81548160ff021916908360ff160217905550610f086003819055506104cb8061008a6000396000f3006060604052361561008c576000357c0100000000000000000000000000000000000000000000000000000000900463ffffffff16806313af403514610091578063333553e8146100ca578063355274ea146101025780634f939bb3146101315780638da5cb5b1461015a5780639ededf77146101af578063ec0cfd0b146101d8578063f5967b0714610215575b600080fd5b341561009c57600080fd5b6100c8600480803573ffffffffffffffffffffffffffffffffffffffff1690602001909190505061024d565b005b34156100d557600080fd5b610100600480803590602001909190803560ff169060200190919080359060200190919050506102e6565b005b341561010d57600080fd5b6101156103a8565b604051808260ff1660ff16815260200191505060405180910390f35b341561013c57600080fd5b6101446103bb565b6040518082815260200191505060405180910390f35b341561016557600080fd5b61016d6103c1565b604051808273ffffffffffffffffffffffffffffffffffffffff1673ffffffffffffffffffffffffffffffffffffffff16815260200191505060405180910390f35b34156101ba57600080fd5b6101c26103e6565b6040518082815260200191505060405180910390f35b34156101e357600080fd5b6101eb6103ec565b604051808481526020018360ff1660ff168152602001828152602001935050505060405180910390f35b341561022057600080fd5b61024b600480803590602001909190803560ff16906020019091908035906020019091905050610412565b005b6000809054906101000a900473ffffffffffffffffffffffffffffffffffffffff1673ffffffffffffffffffffffffffffffffffffffff163373ffffffffffffffffffffffffffffffffffffffff1614156102e357806000806101000a81548173ffffffffffffffffffffffffffffffffffffffff021916908373ffffffffffffffffffffffffffffffffffffffff1602179055505b50565b8260018190555081600260006101000a81548160ff021916908360ff160217905550806003819055507fe66e12795774be76a3dd81e8da1bf41be54373f7fcc84c301e855703b8fafbd133600154600260009054906101000a900460ff16600354604051808573ffffffffffffffffffffffffffffffffffffffff1673ffffffffffffffffffffffffffffffffffffffff1681526020018481526020018360ff1660ff16815260200182815260200194505050505060405180910390a1505050565b600260009054906101000a900460ff1681565b60035481565b6000809054906101000a900473ffffffffffffffffffffffffffffffffffffffff1681565b60015481565b6000806000600154600260009054906101000a900460ff16600354925092509250909192565b6000809054906101000a900473ffffffffffffffffffffffffffffffffffffffff1673ffffffffffffffffffffffffffffffffffffffff163373ffffffffffffffffffffffffffffffffffffffff16141561049a57600083118015610478575060488311155b8015610488575060028260ff1611155b15610499576104988383836102e6565b5b5b5050505600a165627a7a7230582036f95d0a17148937ca862183560cc36515d19dbf199facd20a118626878f80030029",
  "source": "pragma solidity ^0.4.17;\n\ncontract SecureLineProperties {\n  address public owner;\n\n  uint256 public width;\n  uint8   public cap;\n  uint256 public dashes;\n\n  event LineProperties(\n      address setter,\n      uint256 width,\n      uint8 cap,\n      uint256 dashes\n  );\n\n  modifier onlyOwner () {\n    if (msg.sender == owner) _;\n  }\n\n  function SecureLineProperties () public {\n    owner = msg.sender;\n    width = 12;\n    cap = 2;\n    dashes = 0x0F08;\n  }\n\n  function setOwner (address newOwner) public onlyOwner {\n      owner = newOwner;\n  }\n\n  /*\n    function _setWidth (uint256 newWidth) {\n    if (newWidth > 0 && newWidth <= 72) {\n    width = newWidth;\n    }\n    }\n\n    function _setCap (uint8 newCap) {\n    if (newCap <= 2) {\n    cap = newCap;\n    }\n    }\n\n    function _setDashes (uint256 newDashes) {\n    dashes = newDashes;\n    }\n  */\n  \n  function _setProperties (uint256 newWidth, uint8 newCap, uint256 newDashes) {\n      width = newWidth;\n      cap = newCap;\n      dashes = newDashes;\n      LineProperties(msg.sender, width, cap, dashes);\n  }\n\n  function setProperties (\n      uint256 newWidth,\n      uint8 newCap,\n      uint256 newDashes\n  )\n      public\n      onlyOwner\n  {\n      //_setWidth(newWidth);\n      //_setCap(newCap);\n      //_setDashed(newDashes);\n      if (\n          (newWidth > 0 && newWidth <= 72) &&\n          (newCap <= 2)\n          // Zero dashes == solid line, so don't check.\n      ) {\n          _setProperties(newWidth, newCap, newDashes);\n      }\n  }\n\n  function getProperties () public returns (uint256, uint8, uint256) {\n      return (width, cap, dashes);\n  }\n}\n",
  "sourcePath": "/home/rob/projects/artworld-ethereum/dapps/hack-line-properties/contracts/SecureLineProperties.sol",
  "compiler": {
    "name": "solc",
    "version": "0.4.17+commit.bdeb9e52.Emscripten.clang"
  },
  "schemaVersion": "3.0.11",
  "updatedAt": "2019-07-22T04:06:06.307Z",
  "devdoc": {
    "methods": {}
  },
  "userdoc": {
    "methods": {}
  }
}