{
  "contractName": "FourX",
  "abi": [
    {
      "constant": false,
      "inputs": [
        {
          "name": "_spender",
          "type": "address"
        },
        {
          "name": "_value",
          "type": "uint256"
        }
      ],
      "name": "approve",
      "outputs": [
        {
          "name": "",
          "type": "bool"
        }
      ],
      "payable": false,
      "stateMutability": "nonpayable",
      "type": "function"
    },
    {
      "constant": true,
      "inputs": [],
      "name": "totalSupply",
      "outputs": [
        {
          "name": "",
          "type": "uint256"
        }
      ],
      "payable": false,
      "stateMutability": "view",
      "type": "function"
    },
    {
      "constant": false,
      "inputs": [
        {
          "name": "_from",
          "type": "address"
        },
        {
          "name": "_to",
          "type": "address"
        },
        {
          "name": "_value",
          "type": "uint256"
        }
      ],
      "name": "transferFrom",
      "outputs": [
        {
          "name": "",
          "type": "bool"
        }
      ],
      "payable": false,
      "stateMutability": "nonpayable",
      "type": "function"
    },
    {
      "constant": false,
      "inputs": [
        {
          "name": "_spender",
          "type": "address"
        },
        {
          "name": "_subtractedValue",
          "type": "uint256"
        },
        {
          "name": "_value",
          "type": "uint256"
        }
      ],
      "name": "decreaseApproval",
      "outputs": [
        {
          "name": "",
          "type": "bool"
        }
      ],
      "payable": false,
      "stateMutability": "nonpayable",
      "type": "function"
    },
    {
      "constant": true,
      "inputs": [
        {
          "name": "_owner",
          "type": "address"
        },
        {
          "name": "_subtractedValue",
          "type": "uint256"
        }
      ],
      "name": "balanceOf",
      "outputs": [
        {
          "name": "balance",
          "type": "uint256"
        }
      ],
      "payable": false,
      "stateMutability": "view",
      "type": "function"
    },
    {
      "constant": false,
      "inputs": [
        {
          "name": "newOrder",
          "type": "uint8"
        }
      ],
      "name": "setNewOrder",
      "outputs": [
        {
          "name": "balance",
          "type": "uint256"
        }
      ],
      "payable": false,
      "stateMutability": "nonpayable",
      "type": "function"
    },
    {
      "constant": true,
      "inputs": [
        {
          "name": "newOrder",
          "type": "uint8"
        }
      ],
      "name": "owner",
      "outputs": [
        {
          "name": "",
          "type": "address"
        }
      ],
      "payable": false,
      "stateMutability": "view",
      "type": "function"
    },
    {
      "constant": false,
      "inputs": [
        {
          "name": "_to",
          "type": "address"
        },
        {
          "name": "_value",
          "type": "uint256"
        }
      ],
      "name": "transfer",
      "outputs": [
        {
          "name": "",
          "type": "bool"
        }
      ],
      "payable": false,
      "stateMutability": "nonpayable",
      "type": "function"
    },
    {
      "constant": false,
      "inputs": [
        {
          "name": "_spender",
          "type": "address"
        },
        {
          "name": "_addedValue",
          "type": "uint256"
        }
      ],
      "name": "increaseApproval",
      "outputs": [
        {
          "name": "",
          "type": "bool"
        }
      ],
      "payable": false,
      "stateMutability": "nonpayable",
      "type": "function"
    },
    {
      "constant": true,
      "inputs": [
        {
          "name": "_owner",
          "type": "address"
        },
        {
          "name": "_spender",
          "type": "address"
        }
      ],
      "name": "allowance",
      "outputs": [
        {
          "name": "",
          "type": "uint256"
        }
      ],
      "payable": false,
      "stateMutability": "view",
      "type": "function"
    },
    {
      "constant": true,
      "inputs": [
        {
          "name": "order",
          "type": "uint8"
        },
        {
          "name": "_spender",
          "type": "address"
        }
      ],
      "name": "isOrderInRange",
      "outputs": [
        {
          "name": "result",
          "type": "bool"
        }
      ],
      "payable": false,
      "stateMutability": "pure",
      "type": "function"
    },
    {
      "constant": false,
      "inputs": [
        {
          "name": "newOwner",
          "type": "address"
        }
      ],
      "name": "transferOwnership",
      "outputs": [],
      "payable": false,
      "stateMutability": "nonpayable",
      "type": "function"
    },
    {
      "inputs": [],
      "payable": false,
      "stateMutability": "nonpayable",
      "type": "constructor"
    },
    {
      "anonymous": false,
      "inputs": [
        {
          "indexed": false,
          "name": "changedBy",
          "type": "address"
        },
        {
          "indexed": false,
          "name": "oldOrder",
          "type": "uint8"
        },
        {
          "indexed": false,
          "name": "newOrder",
          "type": "uint8"
        }
      ],
      "name": "CurrentOrderChanged",
      "type": "event"
    },
    {
      "anonymous": false,
      "inputs": [
        {
          "indexed": true,
          "name": "previousOwner",
          "type": "address"
        },
        {
          "indexed": true,
          "name": "newOwner",
          "type": "address"
        }
      ],
      "name": "OwnershipTransferred",
      "type": "event"
    },
    {
      "anonymous": false,
      "inputs": [
        {
          "indexed": true,
          "name": "owner",
          "type": "address"
        },
        {
          "indexed": true,
          "name": "spender",
          "type": "address"
        },
        {
          "indexed": false,
          "name": "value",
          "type": "uint256"
        }
      ],
      "name": "Approval",
      "type": "event"
    },
    {
      "anonymous": false,
      "inputs": [
        {
          "indexed": true,
          "name": "from",
          "type": "address"
        },
        {
          "indexed": true,
          "name": "to",
          "type": "address"
        },
        {
          "indexed": false,
          "name": "value",
          "type": "uint256"
        }
      ],
      "name": "Transfer",
      "type": "event"
    }
  ],
  "bytecode": "0x6060604052610300604051908101604052806040805190810160405280600481526020017f414243440000000000000000000000000000000000000000000000000000000081525081526020016040805190810160405280600481526020017f414244430000000000000000000000000000000000000000000000000000000081525081526020016040805190810160405280600481526020017f414342440000000000000000000000000000000000000000000000000000000081525081526020016040805190810160405280600481526020017f414344420000000000000000000000000000000000000000000000000000000081525081526020016040805190810160405280600481526020017f414442430000000000000000000000000000000000000000000000000000000081525081526020016040805190810160405280600481526020017f414443420000000000000000000000000000000000000000000000000000000081525081526020016040805190810160405280600481526020017f424143440000000000000000000000000000000000000000000000000000000081525081526020016040805190810160405280600481526020017f424144430000000000000000000000000000000000000000000000000000000081525081526020016040805190810160405280600481526020017f424341440000000000000000000000000000000000000000000000000000000081525081526020016040805190810160405280600481526020017f424344410000000000000000000000000000000000000000000000000000000081525081526020016040805190810160405280600481526020017f424441430000000000000000000000000000000000000000000000000000000081525081526020016040805190810160405280600481526020017f424443410000000000000000000000000000000000000000000000000000000081525081526020016040805190810160405280600481526020017f434142440000000000000000000000000000000000000000000000000000000081525081526020016040805190810160405280600481526020017f434144420000000000000000000000000000000000000000000000000000000081525081526020016040805190810160405280600481526020017f434241440000000000000000000000000000000000000000000000000000000081525081526020016040805190810160405280600481526020017f434244410000000000000000000000000000000000000000000000000000000081525081526020016040805190810160405280600481526020017f434441420000000000000000000000000000000000000000000000000000000081525081526020016040805190810160405280600481526020017f434442410000000000000000000000000000000000000000000000000000000081525081526020016040805190810160405280600481526020017f444142430000000000000000000000000000000000000000000000000000000081525081526020016040805190810160405280600481526020017f444143420000000000000000000000000000000000000000000000000000000081525081526020016040805190810160405280600481526020017f444241430000000000000000000000000000000000000000000000000000000081525081526020016040805190810160405280600481526020017f444243410000000000000000000000000000000000000000000000000000000081525081526020016040805190810160405280600481526020017f444341420000000000000000000000000000000000000000000000000000000081525081526020016040805190810160405280600481526020017f44434241000000000000000000000000000000000000000000000000000000008152508152506004906018620005a9929190620005fd565b503415620005b657600080fd5b33600360006101000a81548173ffffffffffffffffffffffffffffffffffffffff021916908373ffffffffffffffffffffffffffffffffffffffff16021790555062000783565b826018810192821562000644579160200282015b82811115620006435782518290805190602001906200063292919062000657565b509160200191906001019062000611565b5b509050620006539190620006de565b5090565b828054600181600116156101000203166002900490600052602060002090601f016020900481019282601f106200069a57805160ff1916838001178555620006cb565b82800160010185558215620006cb579182015b82811115620006ca578251825591602001919060010190620006ad565b5b509050620006da91906200070f565b5090565b6200070c91905b80821115620007085760008181620006fe919062000737565b50600101620006e5565b5090565b90565b6200073491905b808211156200073057600081600090555060010162000716565b5090565b90565b50805460018160011615610100020316600290046000825580601f106200075f575062000780565b601f0160209004906000526020600020908101906200077f91906200070f565b5b50565b61138b80620007936000396000f3006060604052600436106100ba576000357c0100000000000000000000000000000000000000000000000000000000900463ffffffff168063095ea7b3146100bf57806318160ddd1461011957806323b872dd1461014257806366188463146101bb57806370a082311461021557806371e4eaac146102625780638da5cb5b14610288578063a9059cbb146102dd578063d73dd62314610337578063dd62ed3e14610391578063e79fee29146103fd578063f2fde38b1461043b575b600080fd5b34156100ca57600080fd5b6100ff600480803573ffffffffffffffffffffffffffffffffffffffff16906020019091908035906020019091905050610474565b604051808215151515815260200191505060405180910390f35b341561012457600080fd5b61012c610566565b6040518082815260200191505060405180910390f35b341561014d57600080fd5b6101a1600480803573ffffffffffffffffffffffffffffffffffffffff1690602001909190803573ffffffffffffffffffffffffffffffffffffffff1690602001909190803590602001909190505061056c565b604051808215151515815260200191505060405180910390f35b34156101c657600080fd5b6101fb600480803573ffffffffffffffffffffffffffffffffffffffff1690602001909190803590602001909190505061092b565b604051808215151515815260200191505060405180910390f35b341561022057600080fd5b61024c600480803573ffffffffffffffffffffffffffffffffffffffff16906020019091905050610bbc565b6040518082815260200191505060405180910390f35b341561026d57600080fd5b610286600480803560ff16906020019091905050610c05565b005b341561029357600080fd5b61029b610cf0565b604051808273ffffffffffffffffffffffffffffffffffffffff1673ffffffffffffffffffffffffffffffffffffffff16815260200191505060405180910390f35b34156102e857600080fd5b61031d600480803573ffffffffffffffffffffffffffffffffffffffff16906020019091908035906020019091905050610d16565b604051808215151515815260200191505060405180910390f35b341561034257600080fd5b610377600480803573ffffffffffffffffffffffffffffffffffffffff16906020019091908035906020019091905050610f3a565b604051808215151515815260200191505060405180910390f35b341561039c57600080fd5b6103e7600480803573ffffffffffffffffffffffffffffffffffffffff1690602001909190803573ffffffffffffffffffffffffffffffffffffffff16906020019091905050611136565b6040518082815260200191505060405180910390f35b341561040857600080fd5b610421600480803560ff169060200190919050506111bd565b604051808215151515815260200191505060405180910390f35b341561044657600080fd5b610472600480803573ffffffffffffffffffffffffffffffffffffffff169060200190919050506111d0565b005b600081600260003373ffffffffffffffffffffffffffffffffffffffff1673ffffffffffffffffffffffffffffffffffffffff16815260200190815260200160002060008573ffffffffffffffffffffffffffffffffffffffff1673ffffffffffffffffffffffffffffffffffffffff168152602001908152602001600020819055508273ffffffffffffffffffffffffffffffffffffffff163373ffffffffffffffffffffffffffffffffffffffff167f8c5be1e5ebec7d5bd14f71427d1e84f3dd0314c0f7b2291e5b200ac8c7c3b925846040518082815260200191505060405180910390a36001905092915050565b60005481565b60008073ffffffffffffffffffffffffffffffffffffffff168373ffffffffffffffffffffffffffffffffffffffff16141515156105a957600080fd5b600160008573ffffffffffffffffffffffffffffffffffffffff1673ffffffffffffffffffffffffffffffffffffffff1681526020019081526020016000205482111515156105f757600080fd5b600260008573ffffffffffffffffffffffffffffffffffffffff1673ffffffffffffffffffffffffffffffffffffffff16815260200190815260200160002060003373ffffffffffffffffffffffffffffffffffffffff1673ffffffffffffffffffffffffffffffffffffffff16815260200190815260200160002054821115151561068257600080fd5b6106d482600160008773ffffffffffffffffffffffffffffffffffffffff1673ffffffffffffffffffffffffffffffffffffffff1681526020019081526020016000205461132890919063ffffffff16565b600160008673ffffffffffffffffffffffffffffffffffffffff1673ffffffffffffffffffffffffffffffffffffffff1681526020019081526020016000208190555061076982600160008673ffffffffffffffffffffffffffffffffffffffff1673ffffffffffffffffffffffffffffffffffffffff1681526020019081526020016000205461134190919063ffffffff16565b600160008573ffffffffffffffffffffffffffffffffffffffff1673ffffffffffffffffffffffffffffffffffffffff1681526020019081526020016000208190555061083b82600260008773ffffffffffffffffffffffffffffffffffffffff1673ffffffffffffffffffffffffffffffffffffffff16815260200190815260200160002060003373ffffffffffffffffffffffffffffffffffffffff1673ffffffffffffffffffffffffffffffffffffffff1681526020019081526020016000205461132890919063ffffffff16565b600260008673ffffffffffffffffffffffffffffffffffffffff1673ffffffffffffffffffffffffffffffffffffffff16815260200190815260200160002060003373ffffffffffffffffffffffffffffffffffffffff1673ffffffffffffffffffffffffffffffffffffffff168152602001908152602001600020819055508273ffffffffffffffffffffffffffffffffffffffff168473ffffffffffffffffffffffffffffffffffffffff167fddf252ad1be2c89b69c2b068fc378daa952ba7f163c4a11628f55a4df523b3ef846040518082815260200191505060405180910390a3600190509392505050565b600080600260003373ffffffffffffffffffffffffffffffffffffffff1673ffffffffffffffffffffffffffffffffffffffff16815260200190815260200160002060008573ffffffffffffffffffffffffffffffffffffffff1673ffffffffffffffffffffffffffffffffffffffff16815260200190815260200160002054905080831115610a3c576000600260003373ffffffffffffffffffffffffffffffffffffffff1673ffffffffffffffffffffffffffffffffffffffff16815260200190815260200160002060008673ffffffffffffffffffffffffffffffffffffffff1673ffffffffffffffffffffffffffffffffffffffff16815260200190815260200160002081905550610ad0565b610a4f838261132890919063ffffffff16565b600260003373ffffffffffffffffffffffffffffffffffffffff1673ffffffffffffffffffffffffffffffffffffffff16815260200190815260200160002060008673ffffffffffffffffffffffffffffffffffffffff1673ffffffffffffffffffffffffffffffffffffffff168152602001908152602001600020819055505b8373ffffffffffffffffffffffffffffffffffffffff163373ffffffffffffffffffffffffffffffffffffffff167f8c5be1e5ebec7d5bd14f71427d1e84f3dd0314c0f7b2291e5b200ac8c7c3b925600260003373ffffffffffffffffffffffffffffffffffffffff1673ffffffffffffffffffffffffffffffffffffffff16815260200190815260200160002060008873ffffffffffffffffffffffffffffffffffffffff1673ffffffffffffffffffffffffffffffffffffffff168152602001908152602001600020546040518082815260200191505060405180910390a3600191505092915050565b6000600160008373ffffffffffffffffffffffffffffffffffffffff1673ffffffffffffffffffffffffffffffffffffffff168152602001908152602001600020549050919050565b600080610c1133610bbc565b111515610c1d57600080fd5b610c26826111bd565b1515610c3157600080fd5b601c60009054906101000a900460ff16905081601c60006101000a81548160ff021916908360ff1602179055507f383e99aa9f58195ca13e1ce6a5414bf00d4c1224a731672689ccbc9064d173633382601c60009054906101000a900460ff16604051808473ffffffffffffffffffffffffffffffffffffffff1673ffffffffffffffffffffffffffffffffffffffff1681526020018360ff1660ff1681526020018260ff1660ff168152602001935050505060405180910390a15050565b600360009054906101000a900473ffffffffffffffffffffffffffffffffffffffff1681565b60008073ffffffffffffffffffffffffffffffffffffffff168373ffffffffffffffffffffffffffffffffffffffff1614151515610d5357600080fd5b600160003373ffffffffffffffffffffffffffffffffffffffff1673ffffffffffffffffffffffffffffffffffffffff168152602001908152602001600020548211151515610da157600080fd5b610df382600160003373ffffffffffffffffffffffffffffffffffffffff1673ffffffffffffffffffffffffffffffffffffffff1681526020019081526020016000205461132890919063ffffffff16565b600160003373ffffffffffffffffffffffffffffffffffffffff1673ffffffffffffffffffffffffffffffffffffffff16815260200190815260200160002081905550610e8882600160008673ffffffffffffffffffffffffffffffffffffffff1673ffffffffffffffffffffffffffffffffffffffff1681526020019081526020016000205461134190919063ffffffff16565b600160008573ffffffffffffffffffffffffffffffffffffffff1673ffffffffffffffffffffffffffffffffffffffff168152602001908152602001600020819055508273ffffffffffffffffffffffffffffffffffffffff163373ffffffffffffffffffffffffffffffffffffffff167fddf252ad1be2c89b69c2b068fc378daa952ba7f163c4a11628f55a4df523b3ef846040518082815260200191505060405180910390a36001905092915050565b6000610fcb82600260003373ffffffffffffffffffffffffffffffffffffffff1673ffffffffffffffffffffffffffffffffffffffff16815260200190815260200160002060008673ffffffffffffffffffffffffffffffffffffffff1673ffffffffffffffffffffffffffffffffffffffff1681526020019081526020016000205461134190919063ffffffff16565b600260003373ffffffffffffffffffffffffffffffffffffffff1673ffffffffffffffffffffffffffffffffffffffff16815260200190815260200160002060008573ffffffffffffffffffffffffffffffffffffffff1673ffffffffffffffffffffffffffffffffffffffff168152602001908152602001600020819055508273ffffffffffffffffffffffffffffffffffffffff163373ffffffffffffffffffffffffffffffffffffffff167f8c5be1e5ebec7d5bd14f71427d1e84f3dd0314c0f7b2291e5b200ac8c7c3b925600260003373ffffffffffffffffffffffffffffffffffffffff1673ffffffffffffffffffffffffffffffffffffffff16815260200190815260200160002060008773ffffffffffffffffffffffffffffffffffffffff1673ffffffffffffffffffffffffffffffffffffffff168152602001908152602001600020546040518082815260200191505060405180910390a36001905092915050565b6000600260008473ffffffffffffffffffffffffffffffffffffffff1673ffffffffffffffffffffffffffffffffffffffff16815260200190815260200160002060008373ffffffffffffffffffffffffffffffffffffffff1673ffffffffffffffffffffffffffffffffffffffff16815260200190815260200160002054905092915050565b6000601860ff168260ff16109050919050565b600360009054906101000a900473ffffffffffffffffffffffffffffffffffffffff1673ffffffffffffffffffffffffffffffffffffffff163373ffffffffffffffffffffffffffffffffffffffff1614151561122c57600080fd5b600073ffffffffffffffffffffffffffffffffffffffff168173ffffffffffffffffffffffffffffffffffffffff161415151561126857600080fd5b8073ffffffffffffffffffffffffffffffffffffffff16600360009054906101000a900473ffffffffffffffffffffffffffffffffffffffff1673ffffffffffffffffffffffffffffffffffffffff167f8be0079c531659141344cd1fd0a4f28419497f9722a3daafe3b4186f6b6457e060405160405180910390a380600360006101000a81548173ffffffffffffffffffffffffffffffffffffffff021916908373ffffffffffffffffffffffffffffffffffffffff16021790555050565b600082821115151561133657fe5b818303905092915050565b600080828401905083811015151561135557fe5b80915050929150505600a165627a7a72305820f951519b7abf365ee6deb6c612b6ddb955e6fff2814e4c709440eb710c0e7dbe0029",
  "source": "pragma solidity ^0.4.18;\n\nimport 'zeppelin-solidity/contracts/ownership/Ownable.sol';\nimport 'zeppelin-solidity/contracts/token/StandardToken.sol';\n\ncontract FourX is StandardToken, Ownable {\n\n    // The number of permutations of items 1..4\n    uint8 constant ORDERS_COUNT = 24;\n\n    // In Python:\n    // for i in itertools.permutations(list('ABCD'), 4):\n    //     print '\"%s\",' % ''.join(i),\n    // Hurry up solc and support constant array initializers and sizes\n    string[24] ORDERS = [\n        \"ABCD\", \"ABDC\", \"ACBD\", \"ACDB\", \"ADBC\", \"ADCB\",\n        \"BACD\", \"BADC\", \"BCAD\", \"BCDA\", \"BDAC\", \"BDCA\",\n        \"CABD\", \"CADB\", \"CBAD\", \"CBDA\", \"CDAB\", \"CDBA\",\n        \"DABC\", \"DACB\", \"DBAC\", \"DBCA\", \"DCAB\", \"DCBA\"\n    ];\n\n    uint8 currentOrder;\n\n    event CurrentOrderChanged(\n        address changedBy,\n        uint8 oldOrder,\n        uint8 newOrder\n    );\n\n    function isOrderInRange (uint8 order) public pure returns (bool result) {\n        result = order < ORDERS_COUNT;\n    }\n\n    function setNewOrder (uint8 newOrder) public {\n        // Only token holders can set\n        require(balanceOf(msg.sender) > 0);\n        // The new order number mustn't be too high\n        require(isOrderInRange(newOrder));\n        uint8 oldOrder = currentOrder;\n        currentOrder = newOrder;\n        CurrentOrderChanged(msg.sender, oldOrder, currentOrder);\n    }\n\n    function FourX () public {\n        //TODO: Set ownership\n        //TODO: Send tokens to owner\n        //TODO: Set initial state\n    }\n}\n",
  "sourcePath": "/home/rob/projects/artworld-ethereum/dapps/4x/contracts/FourX.sol",
  "compiler": {
    "name": "solc",
    "version": "0.4.18+commit.9cf6e910.Emscripten.clang"
  },
  "schemaVersion": "1.0.1",
  "updatedAt": "2017-12-12T04:08:14.644Z"
}